:020000040800F2
:10000000A80B002091020008F55F00086F58000857
:10001000F15F0008351800085D800008000000004E
:10002000000000000000000000000000F96500086A
:10003000C91A000800000000BF600008316A00080B
:10004000AB020008AB020008AB020008AB020008DC
:10005000AB020008AB020008AB020008AB020008CC
:10006000AB020008AB020008AB020008F11900085F
:10007000011A0008AB020008AB020008AB0200083E
:10008000AB0200080000000099150008AB02000850
:10009000AB020008AB020008AB020008DF1A000840
:1000A000AB020008AB020008AB020008AB0200087C
:1000B000B96A0008C96A0008AB020008AB02000870
:1000C000AB020008AB020008AB020008F5610008B3
:1000D000AB0200084D800008AB020008AB0200082C
:1000E000CB1A0008AB020008AB020008AB02000804
:1000F000AB020008AB020008AB02000800000000E1
:1001000000000000AB02000800000000AB02000885
:10011000AB02000800000000AB020008AB020008C0
:10012000111A0008AB020008AB020008AB0200087D
:10013000AB0200080000000000000000AB02000855
:10014000AB020008AB020008000000000000000045
:10015000000000000000000000000000000000009F
:10016000000000000000000000000000AB020008DA
:10017000AB020008000000000000000000000000CA
:1001800000000000AB0200080000000000000000BA
:10019000000000000000000000000000000000005F
:1001A0000000000000000000AB020008AB020008E5
:1001B000AB020008AB020008AB0200080000000020
:1001C00000000000AB02000800000000000000007A
:1001D000AB020008AB02000800F002F800F049F89A
:1001E0000AA090E8000C82448344AAF10107DA4592
:1001F00001D100F03EF8AFF2090EBAE80F0013F09B
:10020000010F18BFFB1A43F0010318475892000072
:1002100078920000103A24BF78C878C1FAD8520703
:1002200024BF30C830C144BF04680C607047000070
:100230000023002400250026103A28BF78C1FBD8EF
:10024000520728BF30C148BF0B607047662908F0CD
:100250009A84002070471FB508F08BFC00F0C2FBA9
:1002600004000020002108F027F9E0601FBD10B550
:1002700010BD00F0B7FC1146FFF7EDFF07F044FF9B
:1002800000F0D5FC03B4FFF7F2FF03BC00F018FD4B
:100290000948804709480047FEE7FEE7FEE7FEE71A
:1002A000FEE7FEE7FEE7FEE7FEE7FEE70448054956
:1002B000054A064B70470000A56A0008D9010008EE
:1002C000A8050020A80B0020A8070020A8070020F0
:1002D00053EA020C00F069802DE9F04B4FF0000664
:1002E000002B1FBFB3FA83F503FA05F424FA05F6D1
:1002F0005E4012BF1643B2FA82F502FA05F4C5F168
:1003000020051EBF22FA05FC44EA0C04203556EAFB
:10031000044C4FEA144418BF641C4FF000084FF01F
:100320000009904271EB030C39D3002919BFB1FACF
:1003300081F701FA07F6B0FA80F700FA07F6C7F17D
:1003400020071EBF20FA07FC46EA0C062037B6FB42
:10035000F4FCA7EB0507103F07F01F0BCBF12006BD
:100360000CFA0BFB2CFA06F644BFB3460026202FEE
:10037000A4BF5E464FF0000B5BEA060C08BF4FF0CF
:10038000010B19EB0B09ABFB027C48EB0608C01B09
:1003900006FB02CC0BFB03CC71EB0C01C1E70B4657
:1003A000024641464846BDE8F08B13B54FF00000C9
:1003B0004FF00001AFF30080BDE81C407047000023
:1003C0000FB41CB5074B06AA7B44694600900598FC
:1003D00000F0EFFA0020694600F0FEFA1CBC5DF860
:1003E00014FB00000D0600002DE9F0474FF0000A55
:1003F00089460446C0F820A02046E16888470028C6
:1004000076D0252806D0D4E901219047206A401CE7
:100410002062F1E7E168204600258847C4F81CA067
:1004200006460027C4F818A02A2E09D0304607F047
:100430004BFE38B304EB8708303EC8F8186019E06B
:1004400059F8041B204604EB87029161E168884754
:10045000012F064618D1E069002820DA25F0200592
:100460001DE0D8F8180000EB800006EB40003038A3
:10047000C8F818002046E1688847064607F024FEC1
:100480000028EED1012F0AD02E2E08D12046E16897
:1004900088477F1C0646022F45F02005C4DBA06973
:1004A000002803DA404245F00105A061E80701D0C9
:1004B00025F01005B6B1A6F14100192802D8203662
:1004C00045F400654A463146204625604D46FFF713
:1004D000BDFE58B1012806D0ED1D25F0070000F142
:1004E000080989E704E005F1040985E730468AE751
:1004F000206ABDE8F08710B5431C02E010F8011B2C
:1005000071B18107FAD14FF0013202C88C1A8C43C5
:1005100014EAC211F9D0C01A0A0603D0C01E10BDD9
:10052000C01A10BD0A0401D0801E10BD0902FCD003
:10053000401E10BD4FF0000200B51346944696468B
:10054000203922BFA0E80C50A0E80C50B1F12001E6
:10055000BFF4F7AF090728BFA0E80C5048BF0CC094
:100560005DF804EB890028BF40F8042B08BF7047F2
:1005700048BF20F8022B11F0804F18BF00F8012B64
:10058000704770477047704770472DE9FF4F0C4622
:100590001E464FF0FF378BB0D2E90001DDF86080D6
:1005A0000A908A46C1F30A5505B93D46002108461E
:1005B0004FF00000BAF1000F00F4400005DA00EB44
:1005C00080004FF4400101EA50004FEA9059B9F120
:1005D000010F00DDB9460A9850EA4A000ED044F6F1
:1005E0001050A5F2FF3545432F14B8F1000F1ED06F
:1005F0007542291E1EDDC9F100021CE0B8F1010F91
:100600004FF0000001D0302103E0F24305E0215417
:10061000401CB042FBDB30460022002121540B99E4
:10062000C1F80880C1E900200FB0BDE8F08FBD1B04
:100630006D1CDEE74A4600DA694206A800F05CFA63
:1006400006AB93E8070003AB83E8070050460A991E
:1006500000F0DAFB8DE80700A0F500501F3800908D
:100660000398002D0ADD42F21F014A460844002388
:1006700003A90390684600F043FE09E0A0F500508E
:100680004A461F38002303A90390684600F04DFE38
:100690008DE807000004000C03D04FF0FF30410844
:1006A00000E01046B8F1000F03D00022009215467A
:1006B0001EE0751E05D400F099F9303262556D1EAA
:1006C000F9D5B3460122084302D000227F1C04E082
:1006D0002078302801D100227F1E002A099784D07B
:1006E0001DE0112D07DA00F081F9303262556D1CE2
:1006F00050EA0102F5D1084302D00098C8B10EE0DB
:100700000021681E05E0235C625C63542254401E95
:10071000491C8142F7DBAB46A81B401E0990002014
:1007200004F80B000B98099AC0F80880C0E9002B68
:100730007AE711264FF0000857E72DE9F04F884679
:100740000446D21D22F0070191B0D1E90001CDE9A4
:100750000A0107F085FC02460B98C00F01D02D203E
:1007600007E02068810701D52B2002E0202101EA63
:10077000C000032A099001D0072A05DB0346414641
:10078000204600F079F90BE12078800601D5E06978
:1007900000E00620B8F1650F814606D0B8F1660F7B
:1007A00018D0B8F1670F70D131E00020B9F1110F06
:1007B000009001DB112301E009F101030AAA01A95C
:1007C0000CA8FFF7E2FEDDE90C70002609F1010537
:1007D000834647E001204B4600904FF000470AAAAD
:1007E00001A90CA8FFF7D1FEDDE90DB00C995D461B
:1007F000002610B909F101000D18B9EB050003D46A
:10080000C0F1FF3609F10105A5EB09002BE0B9F1B4
:10081000010F01DA4FF001090020B9F1110F00902A
:10082000484601DD112300E003460AAA01A90CA8ED
:10083000FFF7ABFEDDE90C704D46002683462078BD
:1008400000070AD4AB4500DA5D4601A8012D04DD9E
:10085000411911F8011C302907D04F4502DA17F170
:10086000040F04DA012082460FE06D1EEEE7002F30
:1008700002DCED1B3E4403E0781CA84200DD7D1C39
:10088000B81B00F1010A4FF000472078000703D49D
:10089000AA4501DB4FF0FF3A0021B7F1004F0DF1FF
:1008A00043088DF8431024D002202B23002F01DAB7
:1008B0007F422D230A21021EA0F1010000DC5FB15E
:1008C00097FBF1FC97FBF1F201FB1C7C17460CF146
:1008D000300C08F801CDEEE7A8F101000370218883
:1008E000090501D5452100E06521A0F1010800F8C6
:1008F000011C09980FA9A1EB0807FF1D00B10120F9
:10090000411901EBEA70A1693844081A401EA06140
:100910002078C00602D42046AFF30080099828B1A1
:10092000D4E901219047206A401C20622078C0064B
:1009300022D52046AFF300801EE0002E04DBB34535
:1009400002DD01A8805D00E03020D4E9012190475C
:10095000206A401C2062761CAAF101005FEA000AAE
:100960000AD100F03FF8C0680168405CD4E9012179
:100970009047206A401C2062281EA5F10105DCDC9E
:1009800007E0D4E9012118F8010B9047206A401CC8
:100990002062381EA7F10107F3DC2046AFF3008088
:1009A000032011B041E6000001694A1C0261087889
:1009B000704700B58FB0CDE901310021059105499F
:1009C0007944CDE9031011466846FFF70DFD0FB0DD
:1009D00000BD0000E5FFFFFF0A6802F8010B0A6096
:1009E00070470000004870476405002030B5B0F142
:1009F0000A024FEA900E71F100034EEA817EB0EBDD
:100A00000E0061EB91014FEA101E4EEA017E10EBE1
:100A10000E0041EB11114FEA102E4EEA016E10EB61
:100A20000E0041EB11214FEA104E4EEA014E10EB41
:100A30000E0041EB1141401841F100014FEAD00096
:100A400040EA41704FEAD10110EB80054FEA810482
:100A500044EA907444EB01046D1944EB0404521B06
:100A6000A3414FF0000348BF0A3200D530BD401CFF
:100A700041F1000130BD00002DE9F0411F46044660
:100A800003260168072A01F4006004DB08B116A5FB
:100A900005E016A503E008B115A500E015A521F0B5
:100AA00010002060A069C01EA0610FB1401EA061AF
:100AB0002046AFF300804FB1D4E90121384690477A
:100AC000206A401C2062C01C206206E0206AFAE70F
:100AD000D4E9012115F8010B9047761EF8D2204683
:100AE000AFF30080BDE8F0814E414E006E616E00B4
:100AF000494E4600696E66002DE9F047814616466C
:100B00008AB0354878440DC88DE80D0032487844E5
:100B1000801C03AC0DC884E80D0041F69B300844EE
:100B2000372190FBF1F290FBF1F5A5F1800501FB77
:100B300012041B3C02D56442012000E00020DFF8D3
:100B400098A080460027FA44AAF1BE0A0EE0E0070A
:100B50000AD03246684607EB470101230AEB8101C0
:100B600000F0E3FB8DE8070064107F1C002CEED141
:100B7000194F7F44AE3F19E0E80715D007EB04108A
:100B80000DF1180A90E80E008AE80E00C068F042E5
:100B900001D1981908903246012306A903A800F054
:100BA000C4FB03AB83E807006D10641C002DE3D188
:100BB0004FF0010332466946B8F1000F03A802D096
:100BC00000F09EFB01E000F0B0FBC9E90001C9F8AC
:100BD00008200AB0BDE8F087408100000048704757
:100BE000440500207546FFF7F9FFAE46050069464B
:100BF000534620F00700854618B020B5FFF756FB96
:100C0000BDE820404FF000064FF000074FF000080D
:100C10004FF0000B21F00701AC46ACE8C009ACE88E
:100C2000C009ACE8C009ACE8C0098D46704710B5F2
:100C30000446AFF300802046BDE81040FFF722BB1A
:100C40004FF0013C50F8042B51F8043B9A4221D15B
:100C5000A2EB0C03934313EACC1317D150F8042BE7
:100C600051F8043B9A4215D1A2EB0C03934313EACB
:100C7000CC130BD150F8042B51F8043B9A4209D104
:100C8000A2EB0C03934313EACC13DBD04FF000002C
:100C9000704700BFD01A01BAB1FA81F101F0180112
:100CA00022FA01F0CB40C1F12001DBB2C0B2C01A80
:100CB0002CFA01F3D11A914311EAC311E6D170471E
:100CC00001491820ABBEFEE7260002007047000075
:100CD0009FED241AB5EE002A48F660430021B7EED6
:100CE000004AC0F6000320EE010A30EE020ABDEE13
:100CF000C01AB5EEC00A11EE100AF1EE10FA9FED1F
:100D00001A1AB8BF013802EE100AB8EEC22A30EE45
:100D1000420A9FED162A20EE010ABDEEC01A11EE1E
:100D2000100A30EE021A0246B1EB502F18BF002213
:100D300002EE102A03EB8203B1EB502F18BFB0EE86
:100D4000410AB8EE421A93ED002A93ED013A30EED3
:100D5000410A34EE401A20EE030A21EE021A31EE67
:100D6000000A704783F9223E00000044000000C4DE
:100D70009FED221A48F660430021B7EE004AC0F604
:100D8000000320EE010ABDEEC01AB5EEC00A11EE56
:100D9000100AF1EE10FA9FED1A1AB8BF013802EEF0
:100DA000100AB8EEC22A30EE420A9FED162A20EE53
:100DB000010ABDEEC01A11EE100A30EE021A024608
:100DC000B1EB502F18BF002202EE102A03EB820372
:100DD000B1EB502F18BFB0EE410AB8EE421A93EDB6
:100DE000002A93ED013A30EE410A34EE401A20EE2B
:100DF000030A21EE021A31EE000A704783F9223EFF
:100E000000000044000000C45FEA400C08BF91F0FD
:100E1000000F4FEA8C234FEAC12243EA51514FEAB7
:100E20001C5018BF00F5F0404FEA300018BF41F0E9
:100E300000415FEA6C5C00F02980BCF1FF3F08BF15
:100E400040F080407047130C06BF12044FF0100CA6
:100E50004FF0000C130E04BF12020CF1080C130F1C
:100E600004BF12010CF1040C930F04BF92000CF1AB
:100E7000020CD30F04BF52000CF1010C11464FF0CD
:100E80000002A0F11F00A0EB0C00704711F0004F12
:100E900008BF704731F000413FF4D5AF0B0C06BFDF
:100EA00009044FF0100C4FF0000C0B0E04BF0902A8
:100EB0000CF1080C0B0F04BF09010CF1040C8B0F93
:100EC00004BF89000CF1020CCB0F04BF49000CF1E8
:100ED000010CCCF12003A0EB0C0022FA03F302FA80
:100EE0000CF241EA030100F10100704720F07F4C51
:100EF00080EA030023F07F47ACEB070303F57C5344
:100F000000F0004003F1FF032DE980494FEA154B43
:100F100009B44FEA144325EA0B4E24EA03480FF2C2
:100F2000042606EB132749083E785FEA320203FBEA
:100F30000667C7F5000707FB06F64FEA54374FEA86
:100F4000D64606F1020607FB066CCCF1005C4FEAC0
:100F50001C472CEA074C07FB06F40CFB06F504EBD8
:100F600015464FEA961634BF00204FF000404FEA76
:100F7000D13706FB07FC4FEA1C4C0CFB0BF7D21BCE
:100F800003FB0CF761EB07010CFB0EF7B0EB07401E
:100F900072EB17420CFB08F734BFA2EB0742B2EB2F
:100FA000074261EB17414FEA0C444FEA910706FBF9
:100FB00007FC4FEA1C4C0CFB0BF7B0EBC74072EB85
:100FC000573203FB0CF734BFA2EBC742B2EBC74268
:100FD00061EB57310CFB0EF7B0EBC70072EB5772A9
:100FE0000CFB08F734BFA2EBC702B2EBC70261EB00
:100FF0005771039F4FEA816141EA921104EBCC04DF
:101000004FEAD1374FEA826206FB07FC42EA9012B0
:101010004FEA80604FEA1C4C0CFB0BF7D21B03FB22
:101020000CF761EB07010CFB0EF7B0EB074072EB1E
:1010300017420CFB08F734BFA2EB0742B2EB0742A2
:1010400061EB17414FEA8C554FEA910704EB9C2462
:1010500006FB07FC4FEA1C4C0CFB0BF7B0EBC74040
:1010600072EB573203FB0CF734BFA2EBC742B2EB73
:10107000C74261EB57310CFB0EF7B0EBC70072EBC8
:1010800057720CFB08F734BFA2EBC702B2EBC702E2
:1010900061EB577115EB4C254FEA816141EA9211E2
:1010A0004FEA82624FEAD13742EA901206FB07FC10
:1010B00044F100044FEA80604FEA1C4C0CFB0BF734
:1010C000D21B03FB0CF761EB07010CFB0EF7B0EB37
:1010D000074072EB17420CFB08F734BFA2EB074244
:1010E000B2EB074261EB174115EB1C154FEA81315A
:1010F00041EA92414FEA823242EA90424FEA80301E
:101100004FEA0C7644F1000448EA03434EEA0B48E8
:101110004FF0000EB2EB080C71EB030724BF6246E0
:1011200039464EEB0E0E4FF0000B0018524149416C
:101130004BEB0B0BB2EB080C71EB03077BF1000BD5
:1011400024BF624639464EEB0E0E4FF0000B0018DE
:10115000524149414BEB0B0BB2EB080C71EB03070F
:101160007BF1000B24BF624639464EEB0E0E51EA6E
:10117000020718BF46F0010616EB0E7655F1000285
:1011800054F1000103D5BDE88901BDE80088BDE840
:101190008901BDE80048B619524141EB0101A3F1B4
:1011A0000103704780807F7E7D7C7B7A79787776BB
:1011B00076757473727171706F6E6E6D6C6C6B6A34
:1011C0006A696868676666656464636362616160D2
:1011D000605F5F5E5E5D5D5C5C5B5B5A5A5959584F
:1011E00058575756565555555454535352525251B9
:1011F000515050504F4F4F4E4E4D4D4D4C4C4C4B0F
:101200004B4B4A4A4A494949484848474747474655
:101210004646454545444444444343434342424291
:1012200042414141002B9C4630D477002BD01CB565
:101230004FEA370703B44FF010004FF01001BAF136
:10124000000F06D0BCF1000FDCBF40F0080040F0FA
:1012500008014FF000000FBCBDE810400BF1010B7E
:10126000BBF1010F08BF5FEA170722BF12F10102AD
:1012700011F101014FF0004143F1000300F0004083
:1012800043EA00007047F9D35708D0E746EA06461C
:1012900013F1400F4FEA16461FDD13F1200FDFBF99
:1012A00016430A46002120335B42BED0C3F120071B
:1012B00046EA064602FA07F74FEA164646EA0706E6
:1012C000C3F1200722FA03F201FA07F721FA03F12A
:1012D0004FF0000342EA0702A7E746EA020646EAA1
:1012E00006464FEA164646EA0106BCBF46EA0646EF
:1012F000360C4FF000034FF000024FF0000194E76E
:101300002DE9804C9A46934670B491E8380007C89E
:1013100031EA400C48BF34EA430C03D5FFF7E6FD41
:10132000FFF780FFF0BCBDE8008C2DE9804C9A46A9
:10133000934670B491E8380007C810F0804F08BF9A
:1013400013F0804F03D100F005F8FFF76BFFF0BCFE
:10135000BDE8008C20F07F4780EA030023F07F4C3B
:1013600007EB0C03A3F57C5300F00040A3F1FE0350
:1013700092F0000F00F0B38095F0000F00F077803E
:101380002DE901494FEA11404FEA144621EA00488D
:1013900000FB06FC24EA064708FB06F607FB08F8F4
:1013A00000FB07F718EB06484CEB164C4FEA124BC4
:1013B00018EB07484FEA15464CEB174022EA0B4E54
:1013C0000BFB06FC25EA06470EFB06F607FB0EFEA6
:1013D0000BFB07F71EEB064E4CEB164C4FF00006CE
:1013E0001EEB074E4CEB174B18EB0B0840F10000BF
:1013F00018EB0E0B58EB000840F100008F1A4FF06D
:1014000000013CBFC943661B14BFB5EB040C0021AF
:101410003CBFC943F61B4FEA17444EEA8E0E27EA3B
:1014200004454FEA1C4704FB07622CEA074C05FB06
:1014300007F70CFB05F604FB0CFC16EB074642EB2A
:10144000174216EB0C4642EB1C421BEB060658EB10
:101450000202414146EA9E0601D5BDE80189B6195E
:10146000524141EB0101A3F10103BDE801894FEABB
:1014700014454FEA114724EA054621EA074C05FBCB
:1014800007F406FB07F70CFB06F105FB0CFC11EB60
:10149000074144EB17444FEA124711EB0C4144EB70
:1014A0001C4422EA074C05FB07F206FB07F70CFB7E
:1014B00006F605FB0CFC16EB074642EB174216EB53
:1014C0000C4642EB1C456A1854F1000148BF7047B6
:1014D000B619524141EB0101A3F10103704795F0A8
:1014E000000F37D04FEA11424FEA144721EA024673
:1014F00024EA074C02FB07F106FB07F70CFB06F496
:1015000002FB0CFC14EB074441EB17414FEA154773
:1015100014EB0C4441EB1C4125EA074C02FB07F598
:1015200006FB07F70CFB06F602FB0CFC16EB074666
:1015300045EB174516EB0C4645EB1C42121951F1D1
:10154000000148BF7047B619524141EB0101A3F1B8
:10155000010370474FEA14454FEA114724EA054654
:1015600021EA074C05FB07F106FB07F70CFB06F227
:101570004FF0000605FB0CFC12EB074241EB174154
:1015800012EB0C4251EB1C4148BF7047921841EBE3
:101590000101A3F10103704710B5024800F014FEE9
:1015A00010BD0000D001002070B50546AC6AE06DAA
:1015B00000F0500098BBE06D40F40070E0652068DA
:1015C000006800F00800A8B1206804F008FA10B321
:1015D0002068C06800F40050E8B9E06D20F4807025
:1015E000E065E06D00F48050A8B9E06D40F00100C6
:1015F000E06510E02068C06800F0020058B9E06DB6
:1016000020F48070E065E06D00F4805018B9E06D62
:1016100040F00100E065204600F0D2FD0CE0FFE75D
:10162000E06D00F0100018B1204600F0CBFD03E0A3
:10163000606D416B2846884770BD70B50546AC6A41
:10164000E06D40F04000E065206E40F00400206650
:10165000204600F0B7FD70BD70B50446A56A284667
:1016600000F0AFFD70BD000070B50446206804F0C6
:1016700098F90646206804F099F998B396BB20685B
:10168000806800F00D0001280AD1206881681A4A9C
:101690001140891C816000BF03202168086009E0B7
:1016A000E06D40F01000E065206E40F00100206623
:1016B000012070BD01F070FC054614E001F06CFCE7
:1016C000401B02280FD92068806800F0010050B14B
:1016D000E06D40F01000E065206E40F001002066F3
:1016E0000120E6E705E02068806800F0010000289E
:1016F000E4D10020DDE70000C0FFFF7F38B50446DD
:1017000000200090206804F051F900284FD1206893
:1017100080682849084048B1E06D40F01000E0655D
:10172000206E40F001002066012038BD206804F0E2
:101730001DF900BF2048806800F0E07000F4000050
:1017400080B11E4800681E49B0FBF1F0401C00EB60
:1017500040008000009002E00098401E0090009839
:101760000028F9D101F018FC05461AE0206804F0C1
:101770001DF910B9206804F0F9F801F00DFC401BC8
:1017800002280ED92068006800F0010048B9E06D19
:1017900040F01000E065206E40F00100206601205E
:1017A000C3E72068006800F001000028DED00020B8
:1017B000BBE700003F00008000030050EC00002069
:1017C000400D030070B504460D467F21204600F011
:1017D0008FF905222946204601F046F870BD000029
:1017E00070B505460C4600221021054801F0CEFBDD
:1017F0000123224603480188284602F0E7FC70BD19
:1018000000080048F000002010B504460A212046D8
:10181000FEF790FE0020E06020616061A061E06161
:1018200020626062A0859FED020A84ED0A0A10BD65
:101830000000000000BFFEE710B5044622464FF44A
:1018400000614FF0904001F0A1FB10BD9FED180A20
:1018500080ED010A9FED170A80ED000A9FED160A40
:1018600080ED020A9FED150A80ED030A9FED100A34
:1018700080ED040A9FED0E0A80ED050A9FED0C0A2B
:1018800080ED060A9FED0E0A80ED070A9FED0D0A16
:1018900080ED080A9FED060A80ED090A9FED040A13
:1018A00080ED0A0A9FED020A80ED0B0A70470000E6
:1018B0000000000000004842FA7E0A3FCDAFE63843
:1018C00029ED8DBDAA66D6BB10B52DED0A8B044659
:1018D000F0EE408AB0EE608A18EE900A07F0D8F871
:1018E00041EC1A0B208806F0D7FE41EC1C0B9FED53
:1018F0003D0B53EC102B06F0E1FF41EC1B0B53ECBE
:101900001A2B06F0DDFE41EC190B06F0EBFD374912
:10191000086018EE900A07F0BBF841EC1A0B6088DB
:1019200006F0BAFE41EC1C0B9FED2E0B53EC102B76
:1019300006F0C4FF41EC1B0B53EC1A2B06F0C0FE63
:1019400041EC190B06F0CEFD2849486018EE900ACC
:1019500007F09EF841EC1A0BA08806F09DFE41ECC2
:101960001C0B9FED200B53EC102B06F0A7FF41EC56
:101970001B0B53EC1A2B06F0A3FE41EC190B06F0DF
:10198000B1FD1A49886094ED030AF7EE000A70EE83
:10199000C80A20EE200A0846D0ED000A00EE880AA8
:1019A00084ED030A94ED040AF7EE000A70EEC80A0B
:1019B00020EE200AD0ED010A00EE880A84ED040A28
:1019C00094ED050AF7EE000A70EEC80A20EE200A30
:1019D000D0ED020A00EE880A84ED050ABDEC0A8B00
:1019E00010BD0000333333333303954038050020F6
:1019F00010B5024801F047F810BD000000030020B8
:101A000010B5024801F03FF810BD0000600300204F
:101A100010B5024801F037F810BD00003C0200206C
:101A200030B50E4D0468AC4201D20D4901E00C49BD
:101A300020310B460478083C1425B4FBF5F2446CC5
:101A4000A40803EB84048464054C8034C46402F06D
:101A50001F050124AC40046530BD000008040240AD
:101A60000008024001794A1E064B03EB82024265E0
:101A7000044A403282654A1E02F01F0301229A4046
:101A8000C26570470009024030B5D0E913546C605C
:101A9000446D14B1D0E916546C6090F8444004F0E1
:101AA0001F050124AC40056C6C60046863608468A9
:101AB000102C04D10468A2600468E16003E00468AB
:101AC000A1600468E26030BD704710B54FF400506B
:101AD00001F068F94FF4804001F064F910BD10B5D1
:101AE0004FF4807001F05EF910BD72B600BFFEE7E2
:101AF000F8B504460D460020009000BF94F8580049
:101B0000012801D10220F8BD012084F8580000BF4F
:101B10002046FFF7A9FD06468EBBE06D20F48850F5
:101B200040F00200E065206881681B4A114005F022
:101B3000804242F000421143816000BF13E00098F0
:101B4000401C00901549009888420CD3E06D20F0AD
:101B5000020040F01000E06500BF002084F858004B
:101B600000BF0120CFE720688168C90F0029E6D1B6
:101B7000E06D20F0020040F00100E06504E0FFE7C6
:101B8000E06D40F01000E06500BF002084F85800D0
:101B900000BF3046B7E70000C0FFFF3F02DE040091
:101BA0007047704770477047704700002DE9F04359
:101BB0009BB004460E464FF00008306800B100BFED
:101BC00000BF94F85800012803D102201BB0BDE8E3
:101BD000F083012084F8580000BF0020179018906F
:101BE0002068B0F1A04F02D13148009001E0002000
:101BF0000090009850B9E06D40F02000E06500BF13
:101C0000002084F8580000BF0120DFE7009803F0AF
:101C1000E1FE0746206803F0DDFED8BBD7BB254DAB
:101C2000306800B394F83800716841EA4030A96820
:101C300021F460410843A8604FF0A04003F0BBFED0
:101C400081461B4803F0B7FE49EA0009B9F1000FCD
:101C500027D1B16830680843A96840F61F729143E4
:101C60000843A8601DE0A86820F46040A8604FF019
:101C7000A04003F0A0FE81460D4803F09CFE49EA17
:101C80000009B9F1000F0CD1A86840F61F71884314
:101C9000A86006E0FFE7E06D40F02000E0654FF04F
:101CA000010800BF002084F8580000BF40468DE7BF
:101CB00000010050000300502DE9F84F05460C4686
:101CC0004FF0000A00200090FE49E068884200D0F2
:101CD00000E000BF00BF95F85800012802D10220A3
:101CE000BDE8F88F012085F8580000BF286803F090
:101CF0006CFE00287DD12968D4E9002001F1300C68
:101D0000C0F3012B0CEB8B03D3F800C000F01F0EC7
:101D10004FF01F0B0BFA0EFB2CEA0B0C00F01F0B05
:101D2000C2F3846E0EFA0BFE4CEA0E0CC3F800C030
:101D300000BF286803F049FE8146286803F02CFEA6
:101D40008046B9F1000F64D1B8F1000FFBD1A06853
:101D5000B0F1004F0AD121680022286803F050FE3C
:101D60004FF00041286803F070FE08E0A268216887
:101D7000286803F045FE0021286803F066FE6069CC
:101D80002968C968C1F3C101490000FA01F7206957
:101D900004283FD028682268216900F1600C0CEB10
:101DA0008103D3F800C0DFF820B30CEA0B0C02F07B
:101DB000F84B4BF0004B4BEA070B4CEA0B0CC3F80B
:101DC00000C000BF2868A269216900F1600C0CEB1B
:101DD0008103D3F800C02CF0807C4CEA020CC3F8DD
:101DE00000C000BF2868227F2169012A02D1520663
:101DF00001E0C6E10022134600F1600C0CEB810209
:101E0000D2F800C02CF0007C4CEA030CC2F800C0F1
:101E100000BFA7E00021286803F0B5FDC0F3120061
:101E200030B90021286803F0AEFDC0F3846007E0FC
:101E30000021286803F0A7FD90FAA0F0B0FA80F026
:101E40002168C1F3120119B92168C1F3846104E06A
:101E5000216891FAA1F1B1FA81F1884204D10022FE
:101E60001146286803F0E6FD0121286803F08BFD88
:101E7000C0F3120030B90121286803F084FDC0F3DB
:101E8000846007E00121286803F07DFD90FAA0F04E
:101E9000B0FA80F02168C1F3120119B92168C1F3C9
:101EA000846104E0216891FAA1F1B1FA81F18842DC
:101EB00004D100220121286803F0BCFD022128681A
:101EC00003F061FDC0F3120030B90221286803F06D
:101ED0005AFDC0F3846007E00221286803F053FD37
:101EE00090FAA0F0B0FA80F02168C1F3120119B99C
:101EF0002168C1F3846104E0216891FAA1F1B1FA8B
:101F000081F1884204D100220221286803F092FD69
:101F10000321286803F037FDC0F3120030B9032114
:101F2000286803F030FDC0F3846007E003212868CF
:101F300003F029FD90FAA0F0B0FA80F02168C1F317
:101F4000120119B92168C1F3846104E0216891FA92
:101F5000A1F1B1FA81F1884204D10022032128685D
:101F600003F068FD286803F021FD002872D128687D
:101F7000E2682168D0F8B030C1F3120C23EA0C03F8
:101F800002F0180BDFF844C12CFA0BFC0CEA010C30
:101F900043EA0C03C0F8B03000BF4A49E068884209
:101FA00058D12368C3F312031BB92368C3F38463B6
:101FB00004E0236893FAA3F3B3FA83F35B1C03F002
:101FC0001F03092B3ED82368C3F312031BB92368F0
:101FD000C3F3846304E0236893FAA3F3B3FA83F3AF
:101FE0005B1C03F01F034FF0010C0CFA03FC236889
:101FF000C3F312031BB92368C3F3846304E02368AB
:1020000093FAA3F3B3FA83F35B1C03F01F034CEAC8
:10201000836C2368C3F312031BB92368C3F384637F
:1020200004E0236893FAA3F3B3FA83F35B1C03F091
:102030001F0303EB43034FF0000B4BEA03534CEA3F
:10204000030347E02368C3F3120323B92368C3F3F0
:10205000846305E043E0236893FAA3F3B3FA83F3C0
:102060005B1C03F01F034FF0010C0CFA03FC236808
:10207000C3F312031BB92368C3F3846304E023682A
:1020800093FAA3F3B3FA83F35B1C03F01F034CEA48
:10209000836C2368C3F312031BB92368C3F38463FF
:1020A00004E0236893FAA3F3B3FA83F35B1C03F011
:1020B0001F030A3B03EB43034FF0007B4BEA035340
:1020C00006E0000000007F4000F0FF03FFFF070074
:1020D0004CEA03031946A268286803F091FC2F49D3
:1020E0002068084050B300BF2D48806800F0E076BB
:1020F00000BF2C492068884203D02B4920688842C1
:102100001DD106F40000D0B92868B0F1A04F3ED12F
:1021100046F40001224803F087FC24480068244963
:10212000B0FBF1F0401C00EB40008000009002E0AA
:102130000098401E009000980028F9D127E01D4922
:10214000206888420CD106F0807048B91A49286886
:1021500088421CD046F08071114803F065FC16E0FF
:1021600016492068884212D106F4800078B91249D5
:10217000286888420BD046F48001094803F054FCDB
:1021800005E0E86D40F02000E8654FF0010A00BF6F
:10219000002085F8580000BF5046A1E500000880E7
:1021A00000030050000021C31000C090EC0000208C
:1021B000400D0300000052C700010050000084CB16
:1021C00070477047704700002DE9F84F0446002023
:1021D00000902068056820684668C54803F0CEFB7B
:1021E000074605F00200022811D106F0020002287D
:1021F0000DD1E06D00F0100018B9E06D40F4006002
:10220000E0652046FFF7CCFC02202168086005F05D
:102210000400042803D106F00400042807D005F0C8
:10222000080008285FD106F0080008285BD1E06D9F
:1022300000F0100018B9E06D40F40070E06520680F
:1022400003F0CDFB002848D0AA492068884202D17B
:102250004FF0A04000E020682168884204D01FB100
:10226000052F01D0092F03D12068D0F80C800AE097
:10227000A0492068884202D14FF0A04000E02068C9
:102280008346DBF80C8008F40050B0F5005F24D0E2
:102290002068006800F0080008281ED1206803F0BC
:1022A00094FB90B92068406820F00C0021684860D9
:1022B000E06D20F48070E065E06D00F4805060B95E
:1022C000E06D40F00100E06507E0E06D40F01000D7
:1022D000E065206E40F0010020662046FFF770FFA9
:1022E0000C202168086005F02000202803D106F0AA
:1022F0002000202807D005F04000402872D106F0C9
:10230000400040286ED1E06D00F0100018B9E06D7B
:1023100040F40050E0652068C16C01F4C07109B957
:10232000012100E000218A4600BF206803F057FB2E
:10233000814670492068884202D14FF0A04000E0F9
:1023400020682168884204D01FB1062F01D0072FD2
:1023500003D12068D0F80C800AE0664920688842E2
:1023600002D14FF0A04000E020688346DBF80C80EB
:10237000BAF1000F30D008F0007028B1B9F1000FA9
:102380002AD008F4005038BB2068006800F04000F4
:10239000402821D108F40010F0B9206803F0FCFABD
:1023A00090B92068406820F0600021684860E06DC6
:1023B00020F48050E065E06D00F4807060B9E06D5D
:1023C00040F00100E06507E0E06D40F01000E065DE
:1023D000206E40F0010020662046FFF7E2FB6020FF
:1023E0002168086005F0800080280DD106F080008B
:1023F000802809D1E06D40F48030E065204600F08F
:10240000A9F980202168086005F48070B0F5807F0C
:102410000FD106F48070B0F5807F0AD1E06D40F4F2
:102420000030E0652046FFF7BEFB4FF48070216866
:10243000086005F40070B0F5007F0FD106F400705D
:10244000B0F5007F0AD1E06D40F48020E0652046C1
:10245000FFF7AAFB4FF400702168086005F0100038
:1024600010282AD106F01000102826D1E06B10B9F0
:102470000120009010E047B100BF1D48806800F4C3
:10248000604048B10120009006E02068C06800F07C
:10249000010008B101200090009801280AD1E06DE8
:1024A00040F48060E065206E40F002002066204627
:1024B000FFF788FE10202168086005F48060B0F501
:1024C000806F13D106F48060B0F5806F0ED1E06D9F
:1024D00040F48040E065206E40F0080020664FF434
:1024E0008060216808602046FFF75CFBBDE8F88F3C
:1024F00000030050000100502DE9F84304464FF05E
:1025000000080020009014B90120BDE8F88360693C
:1025100020B194F82400012800D100BFE06D30B94B
:10252000204600F019F90020206684F85800206841
:102530008168C1F3407131B1206881687E4A1140E1
:10254000816000BF00BF206803F03AFAB0B920688C
:1025500081687A4A114041F08051816000BF78481B
:1025600000687849B0FBF1F0401C4000009002E0A8
:102570000098401E009000980028F9D1206803F0D0
:102580001FFA48B9E06D40F01000E065206E40F0A1
:10259000010020664FF00108206803F016FA064695
:1025A000E06D00F01000002877D1002EFCD1E06D26
:1025B00020F4807040F00200E065206803F0F6F936
:1025C000B0B94FF0A04003F0F1F981465E4803F046
:1025D000EDF949EA0009B9F1000F09D160685B49DA
:1025E000896821F47C110143584A916000BF00BF03
:1025F000607FE16B41EA4030E1680843A16808432D
:1026000094F8241040EA014594F82400012803D1ED
:10261000208D401E45EA4045E06A28B1A08D00F4B7
:102620007870216B084305432068C068484908401A
:1026300028432168C8602068006920F04060616B11
:10264000084321680861206803F0A6F90746002EB8
:1026500050D1EFBB207F002141EA803194F838004F
:1026600041EA40052068C06844F2020188432843DB
:102670002168C860206988B12068006940F4803012
:10268000216808612068D0F8C0006FF30D0021694F
:1026900008432168C1F8C0000EE045E020680069E9
:1026A00020F48030216808612068D0F8C0006FF302
:1026B0000D002168C1F8C00094F84000012813D132
:1026C000606C40F00101A06C0843E16C084300E03D
:1026D00010E0216D08432168096940F2FC729143C2
:1026E00008432168086105E02068006920F00100C6
:1026F000216808616069012809D12068006B20F019
:102700000F00216A491E08432168086305E020681C
:10271000006B20F00F0021680863E06D20F00200DC
:1027200040F00100E06505E0E06D40F01000E0657C
:102730004FF001084046E8E6C0FFFF5FC0FFFF7FA3
:10274000EC000020400D0300000100500003005089
:102750000740F0FF7047000010B598B00446142100
:1027600013A8FDF7E7FE442102A8FDF7E3FE206869
:10277000B0F1A04F6ED14FF4004002908003119051
:1027800002A800F07DFD08B1FFF7AFF900BF3248A5
:10279000C06C40F400503049C8640846C06C00F476
:1027A0000050019000BF00BF00BF0846C06C40F061
:1027B0000100C8640846C06C00F00100019000BF31
:1027C00000BF00BF0846C06C40F00200C864084665
:1027D000C06C00F00200019000BF00BF0F201390FA
:1027E000032014900020159013A94FF0904000F0A2
:1027F000E7FA4FF4804013900320149000201590C6
:1028000013A9164800F0DCFA15481649086005209F
:102810004860002113488160C16080210161490046
:102820004161890081612021C1614FF44051016201
:1028300000F0A8F908B1FFF758F900BF0948606532
:10284000846200BF00220121122000F031FC12201E
:1028500000F01AFC18B010BD00100240000400483F
:10286000080402403C0200202DE9F04104460F46D6
:1028700090463D4803F082F80646206803F0A5F82C
:1028800000286DD100BF94F85800012802D1022021
:10289000BDE8F081012084F8580000BF1EB1052E6C
:1028A00001D0092E56D12046FEF728FF0546002DFF
:1028B0004BD1E06D40F60161884340F48070E065E3
:1028C0002A492068884202D14FF0A04000E02068E9
:1028D0002168884200D01EB9E06D20F48010E065C8
:1028E000E06D00F4805020B1206E20F006002066DC
:1028F00001E0002020661E48616DC8621D48616DC0
:1029000008631D48616D48631C202168086000BF92
:10291000002084F8580000BF2068406840F0100094
:10292000216848602068C06840F001002168C860E4
:10293000226802F1400143463A46606D00F08AF990
:102940000546206803F054F80BE000BF002084F82F
:10295000580006E0012500BF002084F8580000E080
:102960000225284694E700000003005000010050B3
:10297000A9150008591600083B160008014600205A
:1029800091F82520022A03D00422CA63012027E0FF
:102990000A68126822F00E020B681A608A6C1268CC
:1029A00022F480728B6C1A600A68126822F00102AD
:1029B0000B681A6091F8442002F01F0301229A402C
:1029C0000B6C5A60D1E913325A604A6D42B14A6DBC
:1029D000126822F480724B6D1A60D1E916325A6087
:1029E000012281F8252000BF002281F8242000BFA9
:1029F000704770B50446002594F8250002280BD0D6
:102A00000420E063012084F8250000BF002084F842
:102A1000240000BF012534E02068006820F00E008B
:102A2000216808602068006820F0010021680860C3
:102A3000A06C006820F48070A16C086094F84400D9
:102A400000F01F0101208840216C4860D4E9131078
:102A50004860606D40B1606D006820F48070616D09
:102A60000860D4E916104860012084F8250000BFF2
:102A7000002084F8240000BFA06B10B12046A16B99
:102A80008847284670BD70B50446206C05682068EC
:102A9000066894F8440000F01F0104208840284094
:102AA000E0B106F00400C8B12068006800F0200022
:102AB00028B92068006820F004002168086094F8B4
:102AC000440000F01F0104208840216C4860206B06
:102AD000002856D02046216B884752E094F84400E5
:102AE00000F01F0102208840284018B306F00200C1
:102AF00000B32068006800F0200040B9206800683A
:102B000020F00A0021680860012084F8250094F86C
:102B1000440000F01F0102208840216C486000BF83
:102B2000002084F8240000BFE06A50B32046E16A28
:102B3000884726E094F8440000F01F0108208840F0
:102B40002840F0B106F00800D8B12068006820F0F5
:102B50000E002168086094F8440000F01F01012075
:102B60008840216C48600120E06384F8250000BFA4
:102B7000002084F8240000BF606B10B12046616B18
:102B8000884770BD70B504460CB9012070BD2F494F
:102B9000206888420BD22E492068401A1421B0FBCD
:102BA000F1F0800060642A48083820640AE0274970
:102BB0002068401A1421B0FBF1F0800060642348C3
:102BC00008382064022084F825002068056847F64C
:102BD000F0708543D4E90201084321690843616923
:102BE0000843A1690843E1690843216A0843054392
:102BF000206805602046FEF713FFA068B0F5804FFF
:102C000001D1002060602079A16C0860D4E9131024
:102C10004860606860B16068042809D82046FEF703
:102C200021FF0020616D0860D4E91610486003E0C0
:102C300000206065A065E0650020E063012084F865
:102C40002500002084F8240000BF9FE7080402400C
:102C5000080002402DE9F04104460D4616461F4685
:102C60004FF0000800BF94F82400012802D1022090
:102C7000BDE8F081012084F8240000BF94F825000D
:102C800001283FD1022084F825000020E06320685D
:102C9000006820F00100216808603B463246294662
:102CA0002046FEF7F1FE206B30B12068006840F04E
:102CB0000E00216808600BE02068006820F0040026
:102CC000216808602068006840F00A0021680860F8
:102CD000A06C006800F4803028B1A06C006840F45B
:102CE0008070A16C0860606D28B1606D006840F470
:102CF0008070616D08602068006840F00100216804
:102D0000086006E000BF002084F8240000BF4FF0F8
:102D100002084046ACE7000010B50446B4F5005F79
:102D20001FD1002002F00AFE012002F013FE002055
:102D3000FEF782FD184801F0B5FD184801F0B2FD1C
:102D400017480078401C40B215490870084690F9B1
:102D50000000052190FBF1F201FB12001049087000
:102D600018E0B4F5804F0FD1012002F0E7FD0020FC
:102D700002F0F0FD0120FEF75FFD074801F0E0FDE5
:102D800005200749087005E0B4F5807F02D10620D0
:102D90000349087010BD00000C04002058040020F6
:102DA0000000002010B5044604480068204020B10F
:102DB000024804602046FFF7AFFF10BD1404014035
:102DC00078B502460B460021CAE001268E401D68F8
:102DD00005EA0604002C73D01D7905F00305012DCA
:102DE00004D01D7905F00305022D13D190684E0023
:102DF0000325B540A8434E00DD68B54028439060E8
:102E0000506801258D40A8431D79C5F300158D40FC
:102E1000284350601D7905F00305032D09D0D068C3
:102E20004E000325B540A8434E009D68B540284399
:102E3000D0601D7905F00305022D13D1CE0802F1F3
:102E4000200555F826004D07EE0E0F25B540A84386
:102E50004E07F60E1D69B5402843CE0802F1200545
:102E600045F8260010684E000325B540A8431D799B
:102E700005F003054E00B540284310605D6805F479
:102E80004035002D6BD000BF384D2D6E45F001054B
:102E9000364E356635462D6E05F00105009500BFAE
:102EA00000BF4FEAB6358E0855F826008D072E0F65
:102EB0000F25B540A843B2F1904F02D100251AE08A
:102EC0004DE02B4DAA4201D1012514E0294DAA4223
:102ED00001D102250FE0284DAA4201D103250AE0C5
:102EE000264DAA4201D1042505E0254DAA4201D173
:102EF000052500E006258E07360FB5402843214DF5
:102F00008E0845F82600204D2868A0435D6805F42A
:102F1000801505B120431C4D28602D1D2868A04355
:102F20005D6805F4001505B12043174D2D1D28607F
:102F3000154D2D1F2868A0435D6805F4003505B1C7
:102F40002043114D2D1F28602D1F2868A0435D6868
:102F500005F4803505B120430B4D083D2860491C20
:102F60001D68CD40002D7FF430AF78BD00100240C9
:102F70000004004800080048000C00480010004809
:102F80000014004808000140080401400AB18161B2
:102F900000E081627047000001480068704700004F
:102FA000E00000200348006803490968084401491B
:102FB00008607047E0000020E800002010B5002401
:102FC000032000F0B3F8002000F008F808B1012455
:102FD00001E000F02FF8204610BD000070B5044657
:102FE000002511480068D8B10F4800684FF47A7185
:102FF000B1FBF0F00D490968B1FBF0F6304601F085
:103000002BFA58B9102C07D200222146501E00F08E
:103010004FF80748046004E0012502E0012500E0C4
:103020000125284670BD0000E8000020EC000020CB
:10303000E400002008B500BF1248006E40F0010017
:10304000104908660846006E00F00100009000BFBD
:1030500000BF00BF0846806D40F08050886508467C
:10306000806D00F08050009000BF00BF052000F090
:103070005DF801F0DDF9022001F0E4F900F0F6F866
:1030800008BD0000001002400146084600280DDB84
:1030900000BF00BF00F01F0301229A4043099B00BC
:1030A00003F1E023C3F8002100BF00BF00BF704759
:1030B0002DE9F05F80460D46164604F0E9FF07460D
:1030C00039462A46334601F00700C0F1070ABAF133
:1030D000040F02D94FF0040A01E0C0F1070AD146FB
:1030E00000F1040ABAF1070F02D24FF0000A01E022
:1030F000A0F1030AD4464FF0010A0AFA09FAAAF12C
:10310000010A0AEA020A0AFA0CFA4FF0010B0BFA5A
:103110000CFBABF1010B0BEA030B4AEA0B04214653
:10312000404604F0BDFFBDE8F09F000000BF00F086
:103130000702064B19684FF6FF031940044B0B4377
:1031400043EA0221014B196000BF70470CED00E01B
:103150000000FA0502468ABB4148006800F4C060DE
:10316000B0F5806F2BD13E488030006820F480702D
:103170003B4BC3F880001846006820F4C06040F460
:10318000007018603748006832235843364BB0FB54
:10319000F3F0411C00E0491E3148406900F48060B2
:1031A000B0F5806F01D10029F5D12D48406900F4B8
:1031B0008060B0F5806F51D10320704708E0284847
:1031C0008030006820F48070254BC3F8800045E013
:1031D000B2F5007F3AD12248006800F4C060B0F533
:1031E000806F2AD11E488030006840F480701C4BEC
:1031F000C3F880001846006820F4C06040F40070F6
:1032000018601848006832235843174BB0FBF3F09E
:10321000411C00E0491E1248406900F48060B0F58E
:10322000806F01D10029F5D10D48406900F480601C
:10323000B0F5806F12D10320BFE7094880300068E5
:1032400040F48070064BC3F8800007E00448006833
:1032500020F4C06040F48060014B18600020ACE7AF
:1032600000700040EC00002040420F0003488068DE
:1032700040F48040014988607047000000700040C1
:103280002DE9F84304460027B846206800F40020E2
:10329000B0F5002F73D1B946D348806D00F080504F
:1032A00078B900BFD048806D40F08050CE49886525
:1032B0000846806D00F08050009000BF00BF4FF0C6
:1032C0000109CA48006840F48070C8490860FFF7E7
:1032D00063FE064606E0FFF75FFE801B022801D969
:1032E000032705E0C148006800F480700028F2D090
:1032F00000BF002F46D1BC489030006800F44075F4
:10330000CDB1206CA84216D0B7489030006820F4A8
:103310004075B548D0F8900040F48030B249C1F80B
:1033200090000846D0F8900020F48030C1F890005A
:103330000846C0F8905005F00100A0B1FFF72CFE40
:10334000064608E0FFF728FE801B41F288318842DC
:1033500001D9032706E0A4489030006800F002007D
:103360000028EFD000BF5FB99F489030006820F47C
:103370004070216C08439C49C1F8900003E00CE0C8
:10338000B84600E0B846B9F1010F05D19648806D06
:1033900020F080509449886500BF207800F001003B
:1033A00048B191488830006820F003006168084304
:1033B0008D49C1F88800207800F00200022809D168
:1033C00089488830006820F00C00A16808438649CD
:1033D000C1F88800207800F00400042809D1824850
:1033E0008830006820F03000E16808437E49C1F869
:1033F0008800207800F00800082809D17A48883031
:10340000006820F0C000216908437749C1F88800AE
:10341000207800F02000202809D173488830006807
:1034200020F44060616908436F49C1F88800207842
:1034300000F04000402809D16B488830006820F433
:103440004050A16908436849C1F88800207800F01D
:103450008000802809D164488830006820F440400A
:10346000E16908436049C1F88800208800F4807051
:10347000B0F5807F09D15C488830006820F4403086
:10348000216A08435849C1F88800208800F4007078
:10349000B0F5007F09D154488830006820F44020FE
:1034A000616A08435049C1F88800208800F48060B0
:1034B000B0F5806F13D14C488830006820F440107C
:1034C000A16A0843484988310860A06AB0F5801FA6
:1034D00005D14548C06840F480104349C860208841
:1034E00000F40060B0F5006F13D13F4888300068E9
:1034F00020F44000E16A08433B4988310860E06AF3
:10350000B0F5800F05D13848C06840F480103649C6
:10351000C860208800F48050B0F5805F13D1324835
:103520008830006820F04070216B08432E498831B4
:103530000860206BB0F1807F05D12B48C06840F453
:1035400080102949C860208800F40050B0F5005F61
:1035500013D125488830006820F04060616B084333
:10356000214988310860606BB0F1006F05D11E48B9
:10357000C06840F480101C49C860208800F4804076
:10358000B0F5804F13D118488830006820F04060B3
:10359000A16B0843144988310860A06BB0F1006F3B
:1035A00005D11148C06840F480100F49C8602088D8
:1035B00000F40040B0F5004F13D10B48883000688C
:1035C00020F04050E16B0843074988310860E06B08
:1035D000B0F1805F05D10448C06840F480300249F2
:1035E000C8604046BDE8F88300100240007000400B
:1035F0002DE9F04104460D464FF0000814B90120B2
:10360000BDE8F0817D48006800F00F00A8420ED2AE
:103610007A48006820F00F0028437849086008467F
:10362000006800F00F00A84201D00120E8E72078F0
:1036300000F00100002864D06068032823D170489E
:10364000006800F0007008B90120D9E702F038FDE9
:1036500006466C48864237D96948806800F0F00019
:1036600030B1207800F0020002282DD1A06858BBAC
:103670006348806820F0F00040F080006049886076
:103680004FF0800820E06068022806D15C4800689E
:1036900000F4003040B90120B2E75948006800F456
:1036A000806008B90120ABE700F0DEF80646554817
:1036B000864209D95248806820F0F00040F080002E
:1036C0004F4988604FF080084D48806820F0030023
:1036D000616808434A498860FFF75EFC074608E0D6
:1036E000FFF75AFCC01B41F28831884201D9032000
:1036F00086E74348806800F00C006168B0EB810FFA
:10370000EED1207800F00200022820D1207800F0CD
:103710000400042805D13A48806840F4E060384944
:103720008860207800F00800082807D134488068B5
:1037300020F4605040F4E06031498860304880688F
:1037400020F0F000A16808432D49886008E0B8F136
:10375000800F05D12A48806820F0F0002849886051
:103760002648006800F00F00A84219D923480068D5
:1037700020F00F00284321490860FFF70DFC0746A1
:1037800008E0FFF709FCC01B41F28831884201D9EB
:10379000032035E71948006800F00F00A842F0D177
:1037A000207800F00400042807D11548806820F430
:1037B000E060E168084312498860207800F0080062
:1037C000082808D10E48806820F46050216940EA3A
:1037D000C1000B49886000F047F809498968C1F3C6
:1037E0000311094A515C01F01F01C84007490860F4
:1037F00007480068FFF7F2FB02E7000000200240E4
:103800000010024000B4C404B28B0008EC00002099
:10381000E40000200148006870470000EC00002030
:1038200000B5FFF7F7FF05498968C1F30221044A93
:10383000515C01F01F01C84000BD000000100240B3
:10384000C28B000800B5FFF7E5FF05498968C1F3A1
:10385000C221044A515C01F01F01C84000BD0000B4
:1038600000100240C28B000870B5224DAD6805F013
:103870000C05042D01D120483AE01E4DAD6805F03D
:103880000C05082D01D11D4832E01A4DAD6805F038
:103890000C050C2D2BD1174DED6805F00304154DCB
:1038A000ED68C5F303156A1C022C0CD0032C09D15A
:1038B000124DB5FBF2F50F4EF668C6F3062605FB72
:1038C00006F10AE000BF0C4DB5FBF2F5094EF668B3
:1038D000C6F3062605FB06F100BF00BF054DED68E7
:1038E000C5F341656D1C6B00B1FBF3F000E00020F7
:1038F00070BD0000001002400024F40000127A00A5
:103900002DE9F843044614B90120BDE8F883207876
:1039100000F00100002865D0FC48806800F00C072A
:10392000FA48C06800F003060C2F01D1032E01D025
:10393000082F0AD1F548006800F40030002851D063
:10394000606800284ED10120DFE700BF6068B0F555
:10395000803F06D1ED48006840F48030EB490860B4
:103960001AE06068B0F5A02F0BD1E848006840F479
:103970008020E64908600846006840F4803008600E
:103980000AE0E248006820F48030E0490860084618
:10399000006820F48020086000BF606888B1FFF7ED
:1039A000FBFA054606E0FFF7F7FA401B642801D949
:1039B0000320AAE7D548006800F400300028F2D0C0
:1039C00010E0FFF7E9FA054606E0FFF7E5FA401BCD
:1039D000642801D9032098E7CC48006800F400303F
:1039E0000028F2D1207800F00200022860D1C748F8
:1039F000806800F00C07C548C06800F003060C2F73
:103A000001D1022E01D0042F18D1C048006800F463
:103A1000806018B1E06808B9012076E7BB484068CB
:103A200020F0FE40217C40EA0160B8494860B84877
:103A30000068FFF7D3FA18B3012066E7E06800B327
:103A4000B248006840F48070B0490860FFF7A4FAFB
:103A5000054606E0FFF7A0FA401B022801D9032023
:103A600053E7AA48006800F480600028F2D0A74815
:103A7000406820F0FE40217C40EA0160A349486094
:103A800016E0A248006820F48070A0490860FFF7A3
:103A900083FA054606E0FFF77FFA401B022801D9AA
:103AA000032032E79948006800F480600028F2D1D2
:103AB000207800F00800082836D16069D0B193481A
:103AC0009430006840F001009049C1F89400FFF77D
:103AD00063FA054606E0FFF75FFA401B022801D9AA
:103AE000032012E789489430006800F002000028A3
:103AF000F1D019E085489430006820F00100834936
:103B0000C1F89400FFF748FA054606E0FFF744FACB
:103B1000401B022801D90320F7E67C489430006856
:103B200000F002000028F1D1207800F00400042801
:103B300072D14FF000087548806D012121EA1070A4
:103B400078B100BF7148806D40F080506F49886542
:103B50000846806D00F08050009000BF00BF4FF01D
:103B600001086C48006800F48070B0B969480068CA
:103B700040F4807067490860FFF70EFA054606E0DA
:103B8000FFF70AFA401B022801D90320BDE661486D
:103B9000006800F480700028F2D000BFA0680128FF
:103BA00008D15A489030006840F001005749C1F8E8
:103BB000900021E0A06805280FD15448903000689B
:103BC00040F004005149C1F890000846D0F8900038
:103BD00040F00100C1F890000EE04C4890300068C1
:103BE00020F001004949C1F890000846D0F8900043
:103BF00020F00400C1F8900000BFA068A8B1FFF752
:103C0000CBF9054609E0FFF7C7F9401B41F28831BF
:103C1000884202D9032078E625E03C4890300068CD
:103C200000F002000028EED013E0FFF7B5F90546DA
:103C300008E0FFF7B1F9401B41F28831884201D911
:103C4000032062E631489030006800F0020000284E
:103C5000EFD1B8F1010F05D12C48806D20F08050D4
:103C60002A49886500BF207800F02000202836D13E
:103C7000A069D0B125489830006840F00100234980
:103C8000C1F89800FFF788F9054606E0FFF784F9C8
:103C9000401B022801D9032037E61C4898300068F1
:103CA00000F002000028F1D019E0184898300068B0
:103CB00020F001001549C1F89800FFF76DF905469D
:103CC00006E0FFF769F9401B022801D903201CE632
:103CD0000E489830006800F002000028F1D1E06939
:103CE000002860D00948806800F00C000C287AD0C9
:103CF000E069022858D10548006820F08070034927
:103D00000860FFF749F905460DE000000010024089
:103D1000E400002000700040FFF73EF9401B02283D
:103D200001D90320F1E54A48006800F0007000283E
:103D3000F2D1D4E90810401E41EA0011A06A41EA1C
:103D40000021208E0122C2EB500041EA4051342074
:103D5000005DC2EB500041EA40612C20005D41EA69
:103D6000C0603B49C9683B4A114008433849C860B4
:103D70000846006840F0807008600846C06840F05F
:103D80008070C860FFF708F9054606E0FFF704F900
:103D9000401B022801D90320B7E52D48006800F038
:103DA00000700028F2D051E02948006820F08070AF
:103DB00027490860FFF7F0F8054606E0FFF7ECF842
:103DC000401B022801D903209FE52148006800F02C
:103DD00000700028F2D11E48C0681F4908401C49E5
:103DE000C86033E0FFE7E069012800D18DE518489D
:103DF000C66806F00301206A814225D106F0F00171
:103E0000606A401EB1EB001F1ED106F4FE41A06A9D
:103E1000B1EB002F18D106F078412C20005DB1EBFA
:103E2000C06F11D106F4C001208E0122C2EB5000F8
:103E3000B1EB405F08D106F0C0613420005DC2EBF9
:103E40005000B1EB406F01D001205EE500205CE541
:103E5000001002400C809F01FCFFEEFE7047000046
:103E6000F8B504462068466820688568C5F3801068
:103E700048B905F0010030B1C6F3801018B12046F2
:103E8000E16C8847F8BDC5F3400030B1C6F3C010FF
:103E900018B12046216D8847F4E7C5F3401030B9CA
:103EA000C5F3801018B9C5F3002000287CD0C6F3F4
:103EB000401000287DD0C5F38010F0B194F85D006B
:103EC00003280ED0206E40F00400206600BF0020C2
:103ED00000902068C068009020688068009000BF53
:103EE0000BE000BF002000902068C06800902068B0
:103EF0008068009000BF00BFC4E7C5F3401088B1E0
:103F0000206E40F00100206600BF00200090206875
:103F1000806800902068006820F0400021680860F8
:103F200000BF00BFC5F3002058B1206E40F008006C
:103F3000206600BF0020009020688068009000BFCD
:103F400000BF206E78B32068406820F0E000216850
:103F50004860012084F85D0006F00200022802D0CB
:103F600006F0010008B32068406820F003002168D3
:103F70004860A06D50B11048A16D8863A06DFEF738
:103F800038FD18B1206E40F040002066606D50B1E1
:103F90000948616D8863606DFEF72BFD18B1206ED6
:103FA00040F04000206603E003E02046FFF756FFA4
:103FB00068E700BF66E700000562000870B50446C8
:103FC0000CB9012070BD606A38B96068B0F5827FB5
:103FD00000D105E00021E16102E000212161616181
:103FE0000021A16294F85D0028B9002084F85C00EB
:103FF000204600F061F8022084F85D002068006827
:1040000020F0400021680860E068B0F5E06F01D959
:10401000002501E04FF48055E068B0F5706F05D0E1
:10402000E068B0F5E06F01D00021A162A08800F443
:104030008270218901F404410843217C01F00201CE
:104040000843217D01F001010843218B01F4007137
:104050000843217F01F0380108432021095D01F068
:1040600080010843218D01F4005108432168086054
:104070000421A06901EA104094F8241001F0100115
:10408000084394F8341001F008010843A18901F4B1
:104090007061084305F48051084321684860206836
:1040A000C06920F400602168C861002020660120FA
:1040B00084F85D00002085E710B586B00446142121
:1040C00001A8FCF737FA3B49206888426FD100BF4E
:1040D0003948006E40F48050374908660846006E43
:1040E00000F48050009000BF00BF00BF0846C06CC5
:1040F00040F00100C8640846C06C00F00100009068
:1041000000BF00BFE0200190022002900020039039
:10411000032004900520059001A94FF09040FEF780
:104120004FFE2648264908600A204860002124489E
:104130008160C16080210161490041618900816124
:104140000021C1614FF480510162FEF71BFD08B1EF
:10415000FDF7CBFC00BF1A48A065846200BF17487A
:104160001430184908600B20486010211548816000
:104170000021C160802101614900416189008161A4
:104180000021C1614FF480510162FEF7FBFC08B1D0
:10419000FDF7ABFC00BF0B486065846200BF0022E6
:1041A00011462320FEF784FF2320FEF76DFF06B0A3
:1041B00010BD000000300140001002400800024025
:1041C0000003002060030020704770472DE9F0478E
:1041D00004460E4617461D4694F85D80D4F80490B8
:1041E000B8F1010F0AD0B9F5827F04D1A06810B9E7
:1041F000B8F1040F02D00220BDE8F0870EB107B17C
:104200000DB90120F8E700BF94F85C00012801D146
:104210000220F1E7012084F85C0000BF94F85D0003
:10422000042802D0052084F85D0000202066A663E3
:10423000A587E5872764A4F84450A4F84650E064B5
:1042400020652068406820F4C04021684860E0682C
:10425000B0F5E06F06D92068406820F480502168EE
:1042600048604DE02068406840F480502168486014
:10427000606D8069B0F5806F19D194F83C0000F052
:10428000010048B92068406820F4804021684860F7
:10429000E08F4010E0870AE02068406840F48040EA
:1042A00021684860E08F012101EB6000E087A06D8C
:1042B0008069B0F5806F23D12068406820F4805079
:1042C00021684860B4F8460000F0010058B9206841
:1042D000406820F4005021684860B4F8460040105F
:1042E000A4F846000CE02068406840F400502168C3
:1042F0004860B4F84600012101EB6000A4F84600D4
:1043000094F85D00042806D13548A16D086335484E
:10431000A16DC86205E03448A16D08633348A16D02
:10432000C8623348A16D48630020A16D8863B4F86A
:104330004630D4F800C00CF10C01226CA06DFEF7E1
:1043400089FC50B1206E40F01000206600BF0020B4
:1043500084F85C0000BF01204EE72068406840F010
:104360000100216848600020616D0863616DC862CA
:10437000616D4863616D8863E38FD4F800C00CF110
:104380000C02A16B606DFEF765FC50B1206E40F031
:104390001000206600BF002084F85C0000BF0120F0
:1043A0002AE72068006800F04000402805D0206817
:1043B000006840F040002168086000BF002084F8D9
:1043C0005C0000BF2068406840F020002168486021
:1043D0002068406840F002002168486000200BE738
:1043E000436200085F62000851620008DB62000857
:1043F0001B62000810B50446094884420FD101220F
:1044000010210848FEF7C2FD0749888D03F064FEBD
:10441000F2EE060A20EE200A034880ED0A0A10BDDB
:104420009C02002000080048F800002070470000AF
:104430000348006B20F00100014908637047000049
:10444000000001400349096B21F002010143014AC8
:10445000116370470000014070B504462546681E90
:10446000B0F1807F01D301200FE0681E4FF0E02102
:1044700048610F214FF0FF3003F012FE00204FF093
:10448000E021886107200861002070BD70477047F7
:104490007047000010B50346002200BF93F83C00AF
:1044A000012801D1022010BD012083F83C0000BF8B
:1044B00022F0FF00CC6840EA040222F440708C68CD
:1044C00040EA040222F480604C6840EA040222F4CC
:1044D00000600C6840EA040222F480500C6940EA53
:1044E000040222F400504C6940EA040222F48040A5
:1044F0000C6B40EA040222F470200C8B40EA044268
:1045000022F08050CC6940EA0402124C1868A042A4
:1045100003D0114C1868A04213D122F470000C8D06
:1045200040EA045222F080700C6A40EA040222F051
:1045300000704C6A40EA040222F00050CC6A40EA63
:1045400004021868426400BF002083F83C0000BFEA
:1045500000BFA8E7002C01400034014070477047BD
:104560007047000030B502460B4600BF92F83C0091
:10457000012801D1022030BD012082F83C0000BF9B
:10458000022082F83D0010684168106884681D4D63
:104590001068A84203D01C4D1068A84203D121F432
:1045A00070015868014319480140186801431068B8
:1045B0004160144D1068A84213D01068B0F1804FCC
:1045C0000FD0134D1068A8420BD0124D1068A842AE
:1045D00007D00D4D1068A84203D00F4D1068A842B7
:1045E00005D124F080049868044310688460012099
:1045F00082F83D0000BF002082F83C0000BF00BFF1
:10460000B9E70000002C0140003401408FFFFFFD9E
:1046100000040040000800400040014070B504461E
:104620000D4615B994F844000BE0042D02D1452045
:10463000005D06E0082D02D14620005D01E0472024
:10464000005D012801D0012070BD1DB9022084F851
:1046500044000EE0042D03D102214520015508E05D
:10466000082D03D102214620015502E002214720F6
:10467000015504222946206802F0A5FA2068406C02
:1046800040F400402168486418492068884213D0EB
:104690002068B0F1804F0FD01549206888420BD0B8
:1046A00014492068884207D013492068884203D003
:1046B00012492068884210D120688068104900EAB9
:1046C0000106062E0FD0B6F5803F0CD0206800689A
:1046D00040F001002168086005E02068006840F0B3
:1046E0000100216808600020AEE70000002C0140B6
:1046F0000004004000080040003401400040014038
:1047000007000100704710B504460CB9012010BD28
:1047100094F83D0028B9002084F83C00204600F0C1
:1047200029F8022084F83D00211D206802F0D4F908
:10473000012084F8480000BF84F83E0001213F209A
:10474000015540200155412001554220015543208B
:10475000015500BF00BF012084F8440045200155E9
:10476000462001554720015500BF012084F83D0037
:104770000020CCE738B504462349206888420DD193
:1047800000BF2248006E40F40060204908660846D9
:10479000006E00F40060009000BF34E02068B0F1CB
:1047A000804F16D100BF1948806D40F001001749B5
:1047B00088650846806D00F00100009000BF00BFD2
:1047C000002202211C20FEF773FC1C20FEF75CFC7B
:1047D00019E00F492068884215D100BF0B48806D51
:1047E00040F00200094988650846806D00F002002B
:1047F000009000BF00BF012211461D20FEF758FCAB
:104800001D20FEF741FC38BD002C01400010024085
:1048100000040040014691F83D00012801D001202C
:104820007047022081F83D00184B0868984213D069
:104830000868B0F1804F0FD0154B086898420BD034
:10484000144B0868984207D0134B0868984203D06D
:10485000124B0868984210D108688068104B00EA33
:104860000302062A0FD0B2F5803F0CD0086800681A
:1048700040F001000B68186005E00868006840F02F
:1048800001000B6818600020CAE70000002C0140FE
:104890000004004000080040003401400040014096
:1048A00007000100014691F83D00012801D00120D8
:1048B0007047022081F83D000868C06840F00100A0
:1048C0000B68D860184B0868984213D00868B0F19C
:1048D000804F0FD0154B086898420BD0144B0868D6
:1048E000984207D0134B0868984203D0124B0868CF
:1048F000984210D108688068104B00EA0302062A2B
:104900000FD0B2F5803F0CD00868006840F001007D
:104910000B68186005E00868006840F001000B684B
:1049200018600020C4E70000002C01400004004093
:104930000008004000340140004001400700010031
:1049400001460868C06820F001000A68D06000BF16
:104950000868006A41F21112104050B90868006AF4
:104960009200104028B90868006820F001000A6829
:10497000106000BF012081F83D000020704700005A
:104980002DE9F04104460D46002700BF94F83C0095
:10499000012802D10220BDE8F081012084F83C000A
:1049A00000BF022084F83D00206886683F4806402A
:1049B00026F47F46206886602868702824D00CDCA6
:1049C00000F00F01002964D10011072861D2DFE84F
:1049D00000F05354555649353F00354A811A9042EC
:1049E0004FD009DCB0F5805F0DD0B0F5005F18D076
:1049F000B0F1101F4DD143E0102943D0202942D0FF
:104A0000502946D140E046E0D5E902136A682068A3
:104A100002F0EAF82068866846F07706206886602B
:104A200039E0D5E902136A68206802F0DDF82068F1
:104A3000806840F48040216888602CE0EA686968FA
:104A4000206802F0BDFA5021206802F0D9F822E077
:104A5000EA686968206802F0C6FA6021206802F0FE
:104A6000CFF818E0EA686968206802F0A9FA4021E6
:104A7000206802F0C5F80EE000BF00BF00BF00BF15
:104A800000BF00BF00BF00BF2968206802F0B8F86F
:104A900001E0012700BF00BF012084F83D0000BFF6
:104AA000002084F83C0000BF384674E788FFCEFF42
:104AB00020001000704770B504462068C668206862
:104AC000056905F00200022819D106F0020002284B
:104AD00015D1401F21680861012020772068806976
:104AE00000F0030018B12046FFF7E4FF05E0204680
:104AF00000F03EF9204600F02CFA0020207705F067
:104B00000400042819D106F00400042815D1C0437C
:104B100021680861022020772068806900F44070D5
:104B200018B12046FFF7C6FF05E0204600F020F947
:104B3000204600F00EFA0020207705F00800082833
:104B400019D106F00800082815D1C0432168086172
:104B5000042020772068C06900F0030018B12046C7
:104B6000FFF7A8FF05E0204600F002F9204600F01C
:104B7000F0F90020207705F01000102819D106F078
:104B80001000102815D1C043216808610820207743
:104B90002068C06900F4407018B12046FFF78AFF12
:104BA00005E0204600F0E4F8204600F0D2F90020AD
:104BB000207705F0010048B106F0010030B16FF038
:104BC000010021680861204600F06AFA05F08000C3
:104BD000802804D005F40050B0F5005F0AD106F03B
:104BE0008000802806D16FF40250216808612046B9
:104BF000FFF74DFC05F48070B0F5807F0AD106F018
:104C00008000802806D16FF48070216808612046FA
:104C1000FFF73CFC05F04000402809D106F04000B9
:104C2000402805D1C04321680861204600F07EFA83
:104C300005F02000202809D106F02000202805D109
:104C4000C043216808612046FFF722FC05F480106C
:104C5000B0F5801F0BD106F48010B0F5801F06D18F
:104C60006FF48010216808612046FFF778FC05F496
:104C70000010B0F5001F0BD106F40010B0F5001FB6
:104C800006D16FF40010216808612046FFF766FC2A
:104C900005F48000B0F5800F0BD106F48000B0F56C
:104CA000800F06D16FF48000216808612046FFF76D
:104CB00057FC05F40000B0F5000F0BD106F400001E
:104CC000B0F5000F06D16FF400002168086120469E
:104CD000FFF718FD70BD000010B586B00446142122
:104CE00001A8FBF727FC1F492068884237D100BF85
:104CF0001D48C06C40F002001B49C8640846C06CE7
:104D000000F00200009000BF00BF00BF0846C06C6A
:104D100040F00100C8640846C06C00F0010000903B
:104D200000BF00BF42F20300019002200290002069
:104D3000039004900620059001A90C48FEF740F866
:104D40004FF4E06001900220029000200390049054
:104D50000620059001A94FF09040FEF731F806B00B
:104D600010BD0000002C014000100240000400486B
:104D700070472DE9F04104460D461646002700BF56
:104D800094F83C00012802D10220BDE8F081012006
:104D900084F83C0000BF0C2E51D005DC4EB1042E2F
:104DA0001ED0082E7AD133E0102E60D0142EF9D107
:104DB00075E02946206801F02FFF2068806940F0E7
:104DC0000800216888612068806920F0040021685B
:104DD000886120688069296908432168886178E0D2
:104DE0002946206801F06EFF2068806940F4006069
:104DF000216888612068806920F48060216888616A
:104E000020688069296940EA01202168886160E0A2
:104E10002946206801F0B0FF2068C06940F0080012
:104E20002168C8612068C06920F004002168C86159
:104E30002068C069296908432168C86149E029469A
:104E4000206801F0F3FF2068C06940F40060216829
:104E5000C8612068C06920F480602168C86120684A
:104E6000C069296940EA01202168C86131E029460A
:104E7000206802F035F82068006D40F008002168D5
:104E800008652068006D20F004002168086520682E
:104E9000006D29690843216808651AE017E0294672
:104EA000206802F055F82068006D40F40060216829
:104EB00008652068006D20F480602168086520681E
:104EC000006D296940EA01202168086501E0012799
:104ED00000BF00BF00BF002084F83C0000BF384680
:104EE00053E710B504460CB9012010BD94F83D00FD
:104EF00028B9002084F83C00204600F029F8022060
:104F000084F83D00211D206801F0E6FD012084F8B1
:104F1000480000BF84F83E0001213F200155402099
:104F2000015541200155422001554320015500BF44
:104F300000BF012084F8440045200155462001555A
:104F40004720015500BF012084F83D000020CCE738
:104F50007047704770B504460D4615B994F83E0089
:104F600015E0042D02D13F20005D10E0082D02D194
:104F70004020005D0BE00C2D02D14120005D06E0D9
:104F8000102D02D14220005D01E04320005D012888
:104F900001D0012070BD1DB9022084F83E001AE046
:104FA000042D03D102213F20015514E0082D03D127
:104FB0000221402001550EE00C2D03D10221412099
:104FC000015508E0102D03D102214220015502E0D5
:104FD00002214320015501222946206801F0E2FD0B
:104FE0002749206888420FD02649206888420BD084
:104FF00025492068884207D024492068884203D088
:1050000023492068884201D1012000E0002028B116
:105010002068406C40F400402168486418492068CA
:10502000884213D02068B0F1804F0FD01949206812
:1050300088420BD018492068884207D0114920685F
:10504000884203D010492068884210D120688068C7
:10505000124900EA0106062E0FD0B6F5803F0CD0AB
:105060002068006840F001002168086005E02068C1
:10507000006840F001002168086000208AE7000015
:10508000002C014000340140004001400044014038
:1050900000480140000400400008004007000100F3
:1050A00010B50446164884421BD1DFED160A9FED69
:1050B000160A1648FCF708FC144800F0DBFB134AFC
:1050C0002032A2F10801124800F096FF0F48D0EDFF
:1050D0000A0AB0EE600A0F4B0F4A1049203001F067
:1050E0008DFA0F48844209D10E480088401C0D49B2
:1050F000088006492C310C48FCF772FB10BD0000FB
:105100000C040020CDCCCC3DCDCC4C3FF800002091
:1051100094010020C4010020C003002028010020C9
:1051200058040020020000209C0200207047014625
:1051300000BF91F88400012801D1022070470120AE
:1051400081F8840000BF2420C1F888000868026844
:105150000868006820F001000B68186022F0005217
:1051600000204866086802602020C1F8880000BF5F
:10517000002081F8840000BF00BFDFE77047704760
:1051800070B504460D4600BF94F88400012801D193
:10519000022070BD012084F8840000BF2420C4F8E0
:1051A0008800206806682068006820F001002168F7
:1051B00008602068806820F060602843216888606B
:1051C000204601F025FF206806602020C4F88800F2
:1051D00000BF002084F8840000BF00BFD9E770B58D
:1051E00004460D4600BF94F88400012801D1022036
:1051F00070BD012084F8840000BF2420C4F888001A
:10520000206806682068006820F0010021680860B6
:105210002068806820F0604028432168886020462C
:1052200001F0F6FE206806602020C4F8880000BF68
:10523000002084F8840000BF00BFD9E770477047A2
:10524000704700002DE9F04704462068C5692068D2
:1052500006682068876840F60F0005EA0009B9F182
:10526000000F0FD105F0200060B106F0200010B94A
:1052700007F0805030B1606F10B12046616F8847F1
:10528000BDE8F087B9F1000F7ED0DF48384018B98B
:10529000DE4830400028F7D005F0010058B106F490
:1052A000807040B1012021680862D4F8900040F07D
:1052B0000100C4F8900005F0020058B107F00100A9
:1052C00040B1022021680862D4F8900040F0040048
:1052D000C4F8900005F0040058B107F0010040B197
:1052E000042021680862D4F8900040F00200C4F85D
:1052F000900005F0080070B106F0200010B9C24817
:10530000384040B1082021680862D4F8900040F08D
:105310000800C4F8900005F4006060B106F08060F9
:1053200048B14FF4006021680862D4F8900040F062
:105330002000C4F89000D4F89000002852D005F066
:10534000200050B106F0200010B907F0805020B1C5
:10535000606F10B12046616F8847D4F890A0206834
:10536000806800F04000402802D00AF0280070B3A6
:10537000204601F075FF2068806800F0400040285A
:1053800026D100BF00BF00E02DE02168083151E8C0
:10539000001F21F040002168083141E80002002A86
:1053A000F1D100BFD4F8800068B19948D4F88010DA
:1053B0008863D4F88000FDF71CFB98B1D4F8800016
:1053C000816B88470EE02046FFF73AFF0AE003E0D2
:1053D0002046FFF735FF05E02046FFF731FF0020AC
:1053E000C4F890004CE7E06E012865D105F010008C
:1053F000002861D006F010000028FAD010202168A3
:1054000008622068806800F0400040287AD1D4F813
:105410008000006840681FFA80F8B8F1000F5CD087
:10542000B4F85C00404558DDA4F85E80D4F88000F4
:105430000068006800F02000E8BB00BF00BF2168E2
:1054400051E8001F21F48070226842E80001002921
:10545000F5D100BF00BF00BF2168083151E8001F2F
:1054600021F001002168083141E80002002AF3D14F
:1054700000BF00BF00BF2168083151E8001F21F0C4
:1054800040002168083141E80002002AF3D100BF42
:105490002020C4F88C000020E06600BF00BF216817
:1054A00051E8001F21F01000226842E800010029A5
:1054B000F5D100BF01E004E068E0D4F88000FDF71A
:1054C0005DFA02202067B4F85C00B4F85E20801A10
:1054D00081B22046FFF752FE12E0B4F85C0040456E
:1054E0000ED1D4F880000068006800F02000202869
:1054F00006D102202067B4F85C102046FFF73EFE7C
:10550000BEE6FFE734F85C0F6188401A1FFA80F8A6
:1055100060885C3CC8B3B8F1000F36D000BF00BF54
:10552000216851E8001F21F49070226842E80001D0
:105530000029F5D100BF00BF00BF2168083151E844
:10554000001F314AD24301EA02002168083141E8D4
:105550000002002AF1D100BF2020C4F88C000020F6
:10556000E066606700BF00BF216851E8001F21F0BE
:105570001000226842E800010029F5D100BF022096
:10558000206741462046FFF7F9FD79E605F48010D3
:1055900050B107F4800038B14FF4801021680862E0
:1055A0002046FFF74CFE6BE605F0800058B106F090
:1055B000800010B907F4000028B1A06F10B1204698
:1055C000A16F88475CE605F0400030B106F040006E
:1055D00018B1204601F07AFE52E605F4000030B121
:1055E00006F0804018B12046FFF728FE48E605F097
:1055F000807030B106F0004018B12046FFF7BFFDC3
:105600003EE600BF3CE6000001000010200100045F
:105610004B72000810B504460CB9012010BDA069FA
:1056200000B100E000BFD4F8880028B9002084F859
:105630008400204600F02AF82420C4F8880020685E
:10564000006820F0010021680860A06A10B12046BF
:1056500001F00AFD204602F053F9012800D1DDE7F0
:105660002068406820F49040216848602068806885
:1056700020F02A00216888602068006840F001005E
:1056800021680860204601F06BFDC7E710B598B0AF
:105690000446142113A8FAF74DFF442102A8FAF793
:1056A00049FF20492068884239D10120029000201A
:1056B000039002A8FDF7E4FD08B1FCF716FA00BF5D
:1056C0001948006E40F48040174908660846006E8D
:1056D00000F48040019000BF00BF00BF0846C06CCE
:1056E00040F00200C8640846C06C00F0020001905F
:1056F00000BF00BFC020139002201490002015901E
:1057000016900720179013A90848FDF759FB0022AF
:1057100011462520FDF7CCFC2520FDF7B5FC18B07F
:1057200010BD000000380140001002400004004895
:1057300070B504460D461646D4F88C00202821D1B9
:1057400005B10EB9012070BD0020E0660E49206849
:10575000884211D02068406800F4000060B100BFAA
:1057600000BF216851E8001F41F08060226842E8D4
:1057700000010029F5D100BF32462946204602F03B
:1057800081FAE0E70220DEE70080004010B5044621
:10579000084884420DD10849084800F0C5FC04229D
:1057A0000649044800F00CF8042204490148FFF7B8
:1057B000BFFF10BDA404002094010020D1000020F0
:1057C00030B50346D3F88800202845D101B10AB985
:1057D000012030BD43F8501F9A80DA800020986283
:1057E0001864212098635869503BB0F1005F19D1CB
:1057F0009868B0F5805F04D1186910B917489867A8
:1058000001E01748986700BF00BF1C68083454E8DF
:10581000004F44F400001C68083444E80005002DE3
:10582000F3D117E09868B0F5805F04D1186910B91A
:105830000C48986701E00C48986700BF00BF1C68DF
:1058400054E8004F44F080001D6845E80004002C37
:10585000F5D100BF0020BCE70220BAE7437E000874
:10586000217F0008E17D0008C57E0008704700BF69
:10587000FEE7000010B52DED048B044694ED0A0AF6
:10588000DFED2C0A30EE600AB0EE408A94ED0A0A91
:10589000DFED280A30EE200AF0EE408AD4ED0A0A45
:1058A000B0EE600AFBF764FAD4ED030A20EE209A0A
:1058B000B0EE480AFBF75CFAD4ED040A00EE209A39
:1058C000B0EE680AFBF754FAD4ED050A00EE209A10
:1058D00084ED079AD4ED0A0AB0EE600AFBF7F8F9F6
:1058E000D4ED030A20EE209AB0EE480AFBF7F0F957
:1058F000D4ED040A00EE209AB0EE680AFBF7E8F94E
:10590000D4ED050A00EE209A84ED069A94ED060A7D
:10591000DFED090A20EE200A84ED060A94ED070A5D
:10592000DFED050A20EE200A84ED070ABDEC048BAA
:1059300010BD0000920A0640ABAA2A3F10B50446EB
:1059400022464FF480610248FDF720FB10BD0000A5
:105950000008004810B5044622464FF40061024892
:10596000FDF714FB10BD0000000800488168024AE2
:105970001140491C81607047C0FFFF7F0146886865
:1059800000F01F007047024602F1600000EB810347
:10599000186800F0F840704701468868C0F3C000FE
:1059A000704701468868C0F3400070470146886828
:1059B00000F0010070470146886800F00100704760
:1059C00001468868C0F30070704701468868C0F3DC
:1059D0008000704701468868C0F380007047014628
:1059E000C86800F4406008B9012070470020FCE757
:1059F0008168024A1140091D81607047C0FFFF7F26
:105A000070B500F11404C1F3406504EB85031C6814
:105A1000C1F304560725B540AC43C1F3045502FA5F
:105A200005F52C431C6070BD826822F0E0720A43C9
:105A30008260704710B500F1600404EB81031C68BC
:105A400024F0004414431C6010BD426922F000425F
:105A50000A4342617047000000B58BB000200890F7
:105A600009900A9020216846FAF764FD4FF0A040A3
:105A7000374908604FF400204860002134488160B5
:105A8000C16001610121416104218161002101772F
:105A90000121417705210162002180F82410C162B3
:105AA0000163012180F838100021C16380F84010A3
:105AB000FCF722FD08B1FCF718F80020089008A9AF
:105AC0002348FCF773F808B1FCF70FF82148009061
:105AD00006200190042002907F200390042004906F
