:020000040800F2
:10000000000C002091020008E3550008D34E0008C0
:10001000E155000829180008B96F00080000000029
:10002000000000000000000000000000555A000819
:10003000E91B000800000000E3560008ED5D000821
:10004000AB020008AB020008AB020008AB020008DC
:10005000AB020008AB020008AB020008AB020008CC
:10006000AB020008AB020008AB02000881190008CF
:100070008D190008AB020008AB020008AB020008B3
:10008000AB02000800000000FD150008AB020008EC
:10009000AB020008AB020008AB020008011C00081C
:1000A000695E0008AB020008AB020008AB02000862
:1000B000855E0008915E00089D5E0008AB020008A6
:1000C000AB020008AB020008AB020008E5560008CE
:1000D000AB020008AD6F0008AB020008AB020008DD
:1000E000EB1B0008AB020008AB020008AB020008E3
:1000F000AB020008AB020008AB02000800000000E1
:1001000000000000AB02000800000000AB02000885
:10011000AB02000800000000AB020008AB020008C0
:1001200099190008AB020008AB020008AB020008F6
:10013000AB0200080000000000000000AB02000855
:10014000AB020008AB020008000000000000000045
:10015000000000000000000000000000000000009F
:10016000000000000000000000000000AB020008DA
:10017000AB020008000000000000000000000000CA
:1001800000000000AB0200080000000000000000BA
:10019000000000000000000000000000000000005F
:1001A0000000000000000000AB020008AB020008E5
:1001B000AB020008AB020008AB0200080000000020
:1001C00000000000AB02000800000000000000007A
:1001D000AB020008AB02000800F002F800F049F89A
:1001E0000AA090E8000C82448344AAF10107DA4592
:1001F00001D100F03EF8AFF2090EBAE80F0013F09B
:10020000010F18BFFB1A43F001031847587F000085
:10021000787F0000103A24BF78C878C1FAD8520716
:1002200024BF30C830C144BF04680C607047000070
:100230000023002400250026103A28BF78C1FBD8EF
:10024000520728BF30C148BF0B607047662907F0CE
:100250001A83002070471FB507F00BFB00F0F4FB7A
:1002600004000020002106F0A7FFE0601FBD10B5CC
:1002700010BD00F0E9FC1146FFF7EDFF06F0E4FECB
:1002800000F007FD03B4FFF7F2FF03BC00F04AFDE6
:100290000948804709480047FEE7FEE7FEE7FEE71A
:1002A000FEE7FEE7FEE7FEE7FEE7FEE70448054956
:1002B000054A064B70470000595E0008D901000846
:1002C00000060020000C002000080020000800208C
:1002D00053EA020C00F069802DE9F04B4FF0000664
:1002E000002B1FBFB3FA83F503FA05F424FA05F6D1
:1002F0005E4012BF1643B2FA82F502FA05F4C5F168
:1003000020051EBF22FA05FC44EA0C04203556EAFB
:10031000044C4FEA144418BF641C4FF000084FF01F
:100320000009904271EB030C39D3002919BFB1FACF
:1003300081F701FA07F6B0FA80F700FA07F6C7F17D
:1003400020071EBF20FA07FC46EA0C062037B6FB42
:10035000F4FCA7EB0507103F07F01F0BCBF12006BD
:100360000CFA0BFB2CFA06F644BFB3460026202FEE
:10037000A4BF5E464FF0000B5BEA060C08BF4FF0CF
:10038000010B19EB0B09ABFB027C48EB0608C01B09
:1003900006FB02CC0BFB03CC71EB0C01C1E70B4657
:1003A000024641464846BDE8F08B13B54FF00000C9
:1003B0004FF00001AFF30080BDE81C407047000023
:1003C0000FB41CB5074B06AA7B44694600900598FC
:1003D00000F021FB0020694600F030FB1CBC5DF8FA
:1003E00014FB0000710600002DE9F0474FF0000AF1
:1003F00089460446C0F820A02046E16888470028C6
:1004000076D0252806D0D4E901219047206A401CE7
:100410002062F1E7E168204600258847C4F81CA067
:1004200006460027C4F818A02A2E09D0304606F048
:10043000ECFD38B304EB8708303EC8F8186019E0CB
:1004400059F8041B204604EB87029161E168884754
:10045000012F064618D1E069002820DA25F0200592
:100460001DE0D8F8180000EB800006EB40003038A3
:10047000C8F818002046E1688847064606F0C5FD22
:100480000028EED1012F0AD02E2E08D12046E16897
:1004900088477F1C0646022F45F02005C4DBA06973
:1004A000002803DA404245F00105A061E80701D0C9
:1004B00025F01005B6B1A6F14100192802D8203662
:1004C00045F400654A463146204625604D46FFF713
:1004D000BDFE58B1012806D0ED1D25F0070000F142
:1004E000080989E704E005F1040985E730468AE751
:1004F000206ABDE8F08710B5431C02E010F8011B2C
:1005000071B18107FAD14FF0013202C88C1A8C43C5
:1005100014EAC211F9D0C01A0A0603D0C01E10BDD9
:10052000C01A10BD0A0401D0801E10BD0902FCD003
:10053000401E10BD10B5203AC0F00B80B1E8185035
:10054000203AA0E81850B1E81850A0E81850BFF4BD
:10055000F5AF5FEA027C24BFB1E81850A0E818505C
:1005600044BF18C918C0BDE810405FEA827C24BFB0
:1005700051F8043B40F8043B08BF7047D20728BF3E
:1005800031F8023B48BF11F8012B28BF20F8023B8D
:1005900048BF00F8012B70474FF0000200B513462A
:1005A00094469646203922BFA0E80C50A0E80C5093
:1005B000B1F12001BFF4F7AF090728BFA0E80C5044
:1005C00048BF0CC05DF804EB890028BF40F8042B3D
:1005D00008BF704748BF20F8022B11F0804F18BFAA
:1005E00000F8012B704770477047704770472DE93E
:1005F000FF4F0C461E464FF0FF378BB0D2E900018B
:10060000DDF860800A908A46C1F30A5505B93D4677
:10061000002108464FF00000BAF1000F00F440003E
:1006200005DA00EB80004FF4400101EA50004FEA88
:100630009059B9F1010F00DDB9460A9850EA4A0015
:100640000ED044F61050A5F2FF3545432F14B8F1F3
:10065000000F1ED07542291E1EDDC9F100021CE0EC
:10066000B8F1010F4FF0000001D0302103E0F24358
:1006700005E02154401CB042FBDB30460022002143
:1006800021540B99C1F80880C1E900200FB0BDE8E2
:10069000F08FBD1B6D1CDEE74A4600DA694206A8F2
:1006A00000F05CFA06AB93E8070003AB83E80700B1
:1006B00050460A9900F0DAFB8DE80700A0F50050DB
:1006C0001F3800900398002D0ADD42F21F014A46B0
:1006D0000844002303A90390684600F043FE09E0A4
:1006E000A0F500504A461F38002303A9039068462E
:1006F00000F04DFE8DE807000004000C03D04FF021
:10070000FF30410800E01046B8F1000F03D000228E
:10071000009215461EE0751E05D400F099F930329E
:1007200062556D1EF9D5B3460122084302D000225E
:100730007F1C04E02078302801D100227F1E002A8F
:10074000099784D01DE0112D07DA00F081F93032CD
:1007500062556D1C50EA0102F5D1084302D00098A1
:10076000C8B10EE00021681E05E0235C625C6354A2
:100770002254401E491C8142F7DBAB46A81B401E99
:100780000990002004F80B000B98099AC0F8088023
:10079000C0E9002B7AE711264FF0000857E72DE952
:1007A000F04F88460446D21D22F0070191B0D1E9EE
:1007B0000001CDE90A0106F000FC02460B98C00FCB
:1007C00001D02D2007E02068810701D52B2002E011
:1007D000202101EAC000032A099001D0072A05DB85
:1007E00003464146204600F079F90BE12078800667
:1007F00001D5E06900E00620B8F1650F814606D01A
:10080000B8F1660F18D0B8F1670F70D131E0002051
:10081000B9F1110F009001DB112301E009F101038F
:100820000AAA01A90CA8FFF7E2FEDDE90C70002678
:1008300009F10105834647E001204B4600904FF047
:1008400000470AAA01A90CA8FFF7D1FEDDE90DB007
:100850000C995D46002610B909F101000D18B9EB9D
:10086000050003D4C0F1FF3609F10105A5EB09002D
:100870002BE0B9F1010F01DA4FF001090020B9F1C5
:10088000110F0090484601DD112300E003460AAA3B
:1008900001A90CA8FFF7ABFEDDE90C704D46002660
:1008A0008346207800070AD4AB4500DA5D4601A8EC
:1008B000012D04DD411911F8011C302907D04F45E5
:1008C00002DA17F1040F04DA012082460FE06D1EF0
:1008D000EEE7002F02DCED1B3E4403E0781CA8424B
:1008E00000DD7D1CB81B00F1010A4FF000472078A5
:1008F000000703D4AA4501DB4FF0FF3A0021B7F10E
:10090000004F0DF143088DF8431024D002202B2313
:10091000002F01DA7F422D230A21021EA0F10100DF
:1009200000DC5FB197FBF1FC97FBF1F201FB1C7C53
:1009300017460CF1300C08F801CDEEE7A8F10100E4
:1009400003702188090501D5452100E06521A0F14A
:10095000010800F8011C09980FA9A1EB0807FF1D69
:1009600000B10120411901EBEA70A1693844081A6D
:10097000401EA0612078C00602D42046AFF300805C
:10098000099828B1D4E901219047206A401C2062CF
:100990002078C00622D52046AFF300801EE0002E4E
:1009A00004DBB34502DD01A8805D00E03020D4E91E
:1009B00001219047206A401C2062761CAAF10100A8
:1009C0005FEA000A0AD100F03FF8C0680168405CA5
:1009D000D4E901219047206A401C2062281EA5F11D
:1009E0000105DCDC07E0D4E9012118F8010B904790
:1009F000206A401C2062381EA7F10107F3DC204664
:100A0000AFF30080032011B041E6000001694A1CE9
:100A100002610878704700B58FB0CDE9013100213F
:100A2000059105497944CDE9031011466846FFF761
:100A3000DBFC0FB000BD0000E5FFFFFF0A6802F815
:100A4000010B0A607047000000487047C005002095
:100A500030B5B0F10A024FEA900E71F100034EEA90
:100A6000817EB0EB0E0061EB91014FEA101E4EEA61
:100A7000017E10EB0E0041EB11114FEA102E4EEAF1
:100A8000016E10EB0E0041EB11214FEA104E4EEAC1
:100A9000014E10EB0E0041EB1141401841F10001F5
:100AA0004FEAD00040EA41704FEAD10110EB8005D7
:100AB0004FEA810444EA907444EB01046D1944EB5D
:100AC0000404521BA3414FF0000348BF0A3200D573
:100AD00030BD401C41F1000130BD00002DE9F04166
:100AE0001F46044603260168072A01F4006004DB60
:100AF00008B116A505E016A503E008B115A500E0AC
:100B000015A521F010002060A069C01EA0610FB1E2
:100B1000401EA0612046AFF300804FB1D4E901210F
:100B200038469047206A401C2062C01C206206E0C4
:100B3000206AFAE7D4E9012115F8010B9047761EE7
:100B4000F8D22046AFF30080BDE8F0814E414E0060
:100B50006E616E00494E4600696E66002DE9F047F1
:100B6000814616468AB0354878440DC88DE80D0098
:100B700032487844801C03AC0DC884E80D0041F66F
:100B80009B300844372190FBF1F290FBF1F5A5F181
:100B9000800501FB12041B3C02D56442012000E0E9
:100BA0000020DFF898A080460027FA44AAF1BE0A88
:100BB0000EE0E0070AD03246684607EB4701012302
:100BC0000AEB810100F0E3FB8DE8070064107F1C55
:100BD000002CEED1194F7F44AE3F19E0E80715D045
:100BE00007EB04100DF1180A90E80E008AE80E00D9
:100BF000C068F04201D1981908903246012306A935
:100C000003A800F0C4FB03AB83E807006D10641C6D
:100C1000002DE3D14FF0010332466946B8F1000FD1
:100C200003A802D000F09EFB01E000F0B0FBC9E990
:100C30000001C9F808200AB0BDE8F087DC6D0000AB
:100C400000487047A00500207546FFF7F9FFAE4643
:100C500005006946534620F00700854618B020B5C8
:100C6000FFF724FBBDE820404FF000064FF00007DF
:100C70004FF000084FF0000B21F00701AC46ACE844
:100C8000C009ACE8C009ACE8C009ACE8C0098D46B1
:100C9000704710B50446AFF300802046BDE8104011
:100CA000FFF7F0BA4FF0013C50F8042B51F8043B29
:100CB0009A4221D1A2EB0C03934313EACC1317D130
:100CC00050F8042B51F8043B9A4215D1A2EB0C03C7
:100CD000934313EACC130BD150F8042B51F8043B87
:100CE0009A4209D1A2EB0C03934313EACC13DBD055
:100CF0004FF00000704700BFD01A01BAB1FA81F17D
:100D000001F0180122FA01F0CB40C1F12001DBB261
:100D1000C0B2C01A2CFA01F3D11A914311EAC311DF
:100D2000E6D1704701491820ABBEFEE7260002005D
:100D3000704700009FED241AB5EE002A47F66013B5
:100D40000021B7EE004AC0F6000320EE010A30EEA3
:100D5000020ABDEEC01AB5EEC00A11EE100AF1EE9D
:100D600010FA9FED1A1AB8BF013802EE100AB8EE59
:100D7000C22A30EE420A9FED162A20EE010ABDEE8D
:100D8000C01A11EE100A30EE021A0246B1EB502FD3
:100D900018BF002202EE102A03EB8203B1EB502FA2
:100DA00018BFB0EE410AB8EE421A93ED002A93ED57
:100DB000013A30EE410A34EE401A20EE030A21EEE9
:100DC000021A31EE000A704783F9223E0000004407
:100DD000000000C49FED221A47F660130021B7EE11
:100DE000004AC0F6000320EE010ABDEEC01AB5EEBF
:100DF000C00A11EE100AF1EE10FA9FED1A1AB8BFF0
:100E0000013802EE100AB8EEC22A30EE420A9FED17
:100E1000162A20EE010ABDEEC01A11EE100A30EEBD
:100E2000021A0246B1EB502F18BF002202EE102A20
:100E300003EB8203B1EB502F18BFB0EE410AB8EEBE
:100E4000421A93ED002A93ED013A30EE410A34EE56
:100E5000401A20EE030A21EE021A31EE000A704712
:100E600083F9223E00000044000000C45FEA400C09
:100E700008BF91F0000F4FEA8C234FEAC12243EAEA
:100E800051514FEA1C5018BF00F5F0404FEA3000B6
:100E900018BF41F000415FEA6C5C00F02980BCF1B2
:100EA000FF3F08BF40F080407047130C06BF12049C
:100EB0004FF0100C4FF0000C130E04BF12020CF197
:100EC000080C130F04BF12010CF1040C930F04BFA4
:100ED00092000CF1020CD30F04BF52000CF1010C74
:100EE00011464FF00002A0F11F00A0EB0C0070476C
:100EF00011F0004F08BF704731F000413FF4D5AF0B
:100F00000B0C06BF09044FF0100C4FF0000C0B0E39
:100F100004BF09020CF1080C0B0F04BF09010CF10E
:100F2000040C8B0F04BF89000CF1020CCB0F04BF23
:100F300049000CF1010CCCF12003A0EB0C0022FACB
:100F400003F302FA0CF241EA030100F101007047D9
:100F500020F07F4C80EA030023F07F47ACEB0703CF
:100F600003F57C5300F0004003F1FF032DE98049B5
:100F70004FEA154B09B44FEA144325EA0B4E24EA15
:100F800003480FF2042606EB132749083E785FEA70
:100F9000320203FB0667C7F5000707FB06F64FEAB8
:100FA00054374FEAD64606F1020607FB066CCCF131
:100FB000005C4FEA1C472CEA074C07FB06F40CFBCD
:100FC00006F504EB15464FEA961634BF00204FF0A5
:100FD00000404FEAD13706FB07FC4FEA1C4C0CFBE4
:100FE0000BF7D21B03FB0CF761EB07010CFB0EF7B1
:100FF000B0EB074072EB17420CFB08F734BFA2EBD3
:101000000742B2EB074261EB17414FEA0C444FEA4B
:10101000910706FB07FC4FEA1C4C0CFB0BF7B0EBEF
:10102000C74072EB573203FB0CF734BFA2EBC74249
:10103000B2EBC74261EB57310CFB0EF7B0EBC700C8
:1010400072EB57720CFB08F734BFA2EBC702B2EB8E
:10105000C70261EB5771039F4FEA816141EA921128
:1010600004EBCC044FEAD1374FEA826206FB07FC5F
:1010700042EA90124FEA80604FEA1C4C0CFB0BF7DF
:10108000D21B03FB0CF761EB07010CFB0EF7B0EB77
:10109000074072EB17420CFB08F734BFA2EB074284
:1010A000B2EB074261EB17414FEA8C554FEA9107CB
:1010B00004EB9C2406FB07FC4FEA1C4C0CFB0BF7D3
:1010C000B0EBC74072EB573203FB0CF734BFA2EB17
:1010D000C742B2EBC74261EB57310CFB0EF7B0EBE6
:1010E000C70072EB57720CFB08F734BFA2EBC702C4
:1010F000B2EBC70261EB577115EB4C254FEA8161EA
:1011000041EA92114FEA82624FEAD13742EA9012E5
:1011100006FB07FC44F100044FEA80604FEA1C4CD8
:101120000CFB0BF7D21B03FB0CF761EB07010CFB6D
:101130000EF7B0EB074072EB17420CFB08F734BF19
:10114000A2EB0742B2EB074261EB174115EB1C150E
:101150004FEA813141EA92414FEA823242EA9042BB
:101160004FEA80304FEA0C7644F1000448EA03432A
:101170004EEA0B484FF0000EB2EB080C71EB030780
:1011800024BF624639464EEB0E0E4FF0000B00189E
:10119000524149414BEB0B0BB2EB080C71EB0307CF
:1011A0007BF1000B24BF624639464EEB0E0E4FF02A
:1011B000000B0018524149414BEB0B0BB2EB080CF2
:1011C00071EB03077BF1000B24BF624639464EEBFF
:1011D0000E0E51EA020718BF46F0010616EB0E7616
:1011E00055F1000254F1000103D5BDE88901BDE8C5
:1011F0000088BDE88901BDE80048B619524141EBBD
:101200000101A3F10103704780807F7E7D7C7B7AA2
:101210007978777676757473727171706F6E6E6DA2
:101220006C6C6B6A6A696868676666656464636348
:1012300062616160605F5F5E5E5D5D5C5C5B5B5ACE
:101240005A5959585857575656555555545453533B
:1012500052525251515050504F4F4F4E4E4D4D4D96
:101260004C4C4C4B4B4B4A4A4A49494948484847E1
:10127000474747464646454545444444444343431F
:101280004342424242414141002B9C4630D47700C8
:101290002BD01CB54FEA370703B44FF010004FF0C6
:1012A0001001BAF1000F06D0BCF1000FDCBF40F016
:1012B000080040F008014FF000000FBCBDE81040EE
:1012C0000BF1010BBBF1010F08BF5FEA170722BF4B
:1012D00012F1010211F101014FF0004143F100034D
:1012E00000F0004043EA00007047F9D35708D0E708
:1012F00046EA064613F1400F4FEA16461FDD13F18A
:10130000200FDFBF16430A46002120335B42BED0C8
:10131000C3F1200746EA064602FA07F74FEA1646E7
:1013200046EA0706C3F1200722FA03F201FA07F79B
:1013300021FA03F14FF0000342EA0702A7E746EA69
:10134000020646EA06464FEA164646EA0106BCBFD2
:1013500046EA0646360C4FF000034FF000024FF00D
:10136000000194E72DE9804C9A46934670B491E8C9
:10137000380007C831EA400C48BF34EA430C03D5B3
:10138000FFF7E6FDFFF780FFF0BCBDE8008C2DE91C
:10139000804C9A46934670B491E8380007C810F024
:1013A000804F08BF13F0804F03D100F005F8FFF71E
:1013B0006BFFF0BCBDE8008C20F07F4780EA0300A3
:1013C00023F07F4C07EB0C03A3F57C5300F00040A7
:1013D000A3F1FE0392F0000F00F0B38095F0000F30
:1013E00000F077802DE901494FEA11404FEA144699
:1013F00021EA004800FB06FC24EA064708FB06F643
:1014000007FB08F800FB07F718EB06484CEB164CF7
:101410004FEA124B18EB07484FEA15464CEB1740C2
:1014200022EA0B4E0BFB06FC25EA06470EFB06F6EE
:1014300007FB0EFE0BFB07F71EEB064E4CEB164CA4
:101440004FF000061EEB074E4CEB174B18EB0B084A
:1014500040F1000018EB0E0B58EB000840F10000C3
:101460008F1A4FF000013CBFC943661B14BFB5EB98
:10147000040C00213CBFC943F61B4FEA17444EEA57
:101480008E0E27EA04454FEA1C4704FB07622CEA4C
:10149000074C05FB07F70CFB05F604FB0CFC16EBF1
:1014A000074642EB174216EB0C4642EB1C421BEB85
:1014B000060658EB0202414146EA9E0601D5BDE808
:1014C0000189B619524141EB0101A3F10103BDE8C5
:1014D00001894FEA14454FEA114724EA054621EAFB
:1014E000074C05FB07F406FB07F70CFB06F105FBB1
:1014F0000CFC11EB074144EB17444FEA124711EB88
:101500000C4144EB1C4422EA074C05FB07F206FBA6
:1015100007F70CFB06F605FB0CFC16EB074642EB47
:10152000174216EB0C4642EB1C456A1854F10001B9
:1015300048BF7047B619524141EB0101A3F10103C5
:10154000704795F0000F37D04FEA11424FEA144729
:1015500021EA024624EA074C02FB07F106FB07F7E3
:101560000CFB06F402FB0CFC14EB074441EB1741A7
:101570004FEA154714EB0C4441EB1C4125EA074C9C
:1015800002FB07F506FB07F70CFB06F602FB0CFC5B
:1015900016EB074645EB174516EB0C4645EB1C4290
:1015A000121951F1000148BF7047B619524141EB81
:1015B0000101A3F1010370474FEA14454FEA1147B7
:1015C00024EA054621EA074C05FB07F106FB07F76D
:1015D0000CFB06F24FF0000605FB0CFC12EB074279
:1015E00041EB174112EB0C4251EB1C4148BF7047D5
:1015F000921841EB0101A3F101037047014800F08B
:10160000D7BD0000EC00002010B5846AE16D11F038
:10161000500F06D0E16DC90625D5204600F0C6FD65
:1016200010BDE06D40F40070E065206801680907B6
:1016300016D503F0C1FC78B12068C068800400288A
:101640000ADBE06D20F48070E065E06DC00403D437
:10165000E06D40F00100E065204600F0A5FD10BD02
:10166000C0688007EBE7616D496BBDE81040084733
:1016700010B5806AC16D41F04001C165016E41F055
:101680000401016600F092FD10BD10B5806A00F003
:101690008CFD10BD70B50446006881688268C1F396
:1016A000400112F0010F28D039BB816801F00D0113
:1016B000012914D18168124A1140891C8160216876
:1016C0000320086001F084FB054612E001F080FB76
:1016D000401B02280DD920688068C00709D0E06D42
:1016E00040F01000E065206E40F00100206601200F
:1016F00070BD20688068C007E8D1002070BD000080
:10170000C0FFFF7FF8B50446002000902068816884
:1017100011F0010F41D18168214A11422ED1816817
:10172000D5432940491C81601E48806800F0E07064
:1017300000020DD51C481D490068B0FBF1F0401CAB
:1017400000EB4000800000E0401E00900028FBD12C
:1017500001F03EFB06461BE0816811F0010F03D14A
:1017600081682940491C816001F032FB801B0228FE
:101770000ED920680068C043C00709D0E06D40F072
:101780001000E065206E40F0010020660120F8BDE9
:1017900020680168C943C907DED10020F8BD0000F8
:1017A0003F0000800003005008000020400D0300AF
:1017B00070B50C4605467F2100F028FA21462846E0
:1017C000BDE87040052200F097BF000070B50C46E0
:1017D000054600221021064801F0F4FA0548224689
:1017E000012301882846BDE8704002F0F1B90000ED
:1017F000000800481800002070B504460A21FEF7D2
:10180000CBFE0025A5860A2104F10C00FEF7C4FEDC
:101810009FED040A84ED0A0AA561E561256265620F
:1018200070BD000000000000FEE702464FF40061BA
:101830004FF0904001F0C6BA9FED110ADFED110A9A
:1018400080ED010A80ED000AC0ED020ADFED0E0A0C
:10185000C0ED030A80ED040A80ED050ADFED0B0AF6
:1018600080ED060AC0ED070ADFED090AC0ED080A9F
:1018700080ED090A80ED0A0A80ED0B0A704700002E
:101880000000000008C9C23D82A8FB3A08C9C2BDD9
:10189000B3EF0ABB70B504462DED088BF0EE408A1D
:1018A000B0EE608A18EE900A05F072FF41EC190B59
:1018B000208805F071FD9FED2FAB53EC1A2B05F03E
:1018C0007DFE53EC192B05F07BFD05F08BFC2B4DB9
:1018D00009EE100A18EE900A85ED009A05F058FFFF
:1018E00041EC1B0B608805F057FD53EC1A2B05F0FB
:1018F00065FE53EC1B2B05F063FD05F073FC09EE50
:10190000900A18EE900AC5ED019A05F041FF41ECEE
:101910001B0BA08805F040FD53EC1A2B05F04EFE82
:1019200053EC1B2B05F04CFD05F05CFC00EE100A9F
:10193000F7EE000A85ED020A70EEC80A94ED031A6C
:1019400021EE201A09EE081A84ED031A94ED041A08
:1019500021EE201A09EE881A84ED041A94ED051A76
:1019600061EE200A40EE080AC4ED050ABDEC088BC2
:1019700070BD0000333333333303954094050020AA
:10198000014800F0A2BF0000C4020020014800F09E
:101990009CBF000024030020014800F096BF000017
:1019A000580100200D4902688A4201D20C4901E029
:1019B0000B492031D2B21423083AB2FBF3F2436C44
:1019C00002F01F0223F003031944816404498031AB
:1019D000C164012191400165704700000804024084
:1019E000000802400179074A02EB81024265054A7C
:1019F0004432491E826501F01F0201219140C165F8
:101A000070470000FC08024030B5D0E9134565601E
:101A1000446D14B1D0E91645656090F8444004F077
:101A20001F050124AC40056C6C600468636083682A
:101A3000102B036803D099600068C26030BD9A60C3
:101A40000068C16030BD00000FB42DE9FF5F4FF0AA
:101A5000FF36239DDDE91B40DDE91E31DDE919A2DA
:101A600095F90070DDF880B0DDF87490DDF85080F5
:101A7000082F76D2DFE807F0040B20334356627D4F
:101A8000119805F085FE04460D4610983DE0D8F803
:101A9000080005F07DFE06460F46D8F8040005F064
:101AA00077FE04460D46D8F8000010E03B48FEF7EC
:101AB00022FD82B2394964E0104605F069FE06460F
:101AC0000F46504605F064FE04460D46189805F092
:101AD0005FFE41EC100B32A153EC102B43E005F0FC
:101AE00057FE05460E46204605F052FE41EC100B0F
:101AF000CDE9005653EC102B2EA128480FE01846D4
:101B000005F046FE04460D46484605F041FE41EC10
:101B1000100B28A153EC102B2048CDE90045FEF70F
:101B20004FFCC3E7084605F033FE06460F4658460D
:101B300005F02EFE04460D462198C8E72E700F983A
:101B400005F026FE06460F46139805F021FE0446D2
:101B50000D46129805F01CFE41EC100B53EC102BB7
:101B600000E016E016A18DE8F0000C48FEF728FC16
:101B70009CE70A482E705030FEF7BDFC074982B240
:101B800050310E9804B0BDE8F01F5DF814EB03F07F
:101B900053B9BDE8FF1F5DF814FB000024000020CE
:101BA000252E32662C252E32662C252E32660D0A05
:101BB00000000000252E32662C252E32660D0A000C
:101BC0000D0A4B703A252E36662C4B693A252E3677
:101BD000662C53706565645F5461726765743A255D
:101BE0002E36660D0A000000704710B54FF4005005
:101BF00000F0B8FFBDE810404FF4804000F0B2BFE5
:101C00004FF4807000F0AEBF72B6FEE7F8B5002664
:101C10000446009690F858000D4601280BD001208C
:101C200084F858002046FFF735FD0100E06D04D030
:101C300040F010002AE00220F8BD20F4885040F067
:101C40000200E06520688268134B1A4005F080436B
:101C50001A4342F000428260104A20680EE0009B66
:101C60005B1C0093934209D3E06D20F0020040F02A
:101C70001000E06584F858600120F8BD8368DB0F30
:101C8000EDD1E06D20F0020040F00100E06584F845
:101C900058600846F8BD0000C0FFFF3F02DE0400A8
:101CA0007047704770477047704700002DE9F04754
:101CB000044690F858009CB00E464FF000090128E9
:101CC00015D0012084F85800002517951895206834
:101CD0004FF0A04840450ED1284F0097384603F0FA
:101CE00067F98246206803F063F960B10EE00220D4
:101CF0001CB0BDE8F087E06D40F02000E06584F89E
:101D000058500120F4E7BAF1000F09D0E06D40F01F
:101D10002000E0654FF0010984F858504846E7E795
:101D20001748326840F61F71002A826822F4604228
:101D300016D094F8383042EA433273681A4382600E
:101D4000D8F80820BB6802F0010203F001031A432F
:101D5000E2D1B36832681A4383688B431A430BE0BD
:101D60008260D8F80820BB6802F0010203F001038A
:101D70001A43D1D182688A438260CDE700010050C6
:101D8000000300502DE9F84F00270446009790F813
:101D90005800DFF8E0930D46B846012811D001261F
:101DA00084F85860206803F0FFF860B1E06D40F0FF
:101DB0002000E0655FF0010784F858803846BDE8F0
:101DC000F88F0220FBE7D5E900210C23206803EA05
:101DD00091131844036B01F01F014FF01F0C0CFA14
:101DE00001FCC2F3846223EA0C038A4013430363B9
:101DF000206803F0D9F88246206803F0D1F85AEA47
:101E000000003CD1AA6829682068B2F1004F37D0A1
:101E100003F0DAF82068416921F00041416120684F
:101E20006969C268C2F3C102520091402A69042A5A
:101E300031D000EB82002B68026EDFF83CC303F068
:101E4000F84302EA0C020B431A4342F000410166D8
:101E500020682A69A96900EB8200026E22F0807274
:101E60000A430266297F22682869012910D00021CF
:101E700002EB8000026E22F000720A4302667DE0EF
:101E8000002203F0A1F82068416941F00041C5E754
:101E90004FF00071ECE7002103F07CF8400320686C
:101EA0004FF0000172D003F075F890FAA0F0B0FA8C
:101EB00080F1286842036ED090FAA0F0B0FA80F06A
:101EC000814204D100221146206803F08CF80121E0
:101ED000206803F05FF8400320684FF001015DD0F7
:101EE00003F058F890FAA0F0B0FA80F128684203A5
:101EF00059D090FAA0F0B0FA80F0814204D10022CB
:101F00000121206803F06FF80221206803F042F8F5
:101F1000400320684FF0020148D003F03BF890FAEC
:101F2000A0F0B0FA80F12868420344D090FAA0F003
:101F3000B0FA80F0814204D100220221206803F02F
:101F400052F80321206803F025F8400320684FF081
:101F5000030133D003F01EF890FAA0F0B0FA80F13C
:101F6000286842032FD090FAA0F0B0FA80F08142A6
:101F700004D100220321206803F035F8206881682D
:101F800011F0010F22D0ACE000E004E003F002F811
:101F9000C0F384618DE7C0F3846091E702F0FAFF3B
:101FA000C0F38461A2E7C0F38460A6E702F0F2FF09
:101FB000C0F38461B7E7C0F38460BBE702F0EAFFD7
:101FC000C0F38461CCE7C0F38460D0E72A7B296842
:101FD00050F8B03FC1F3120C23EA0C0302F0180CC6
:101FE000664A22FA0CF20A4013430360E968494545
:101FF00077D1286841031CD090FAA0F1B1FA81F1A1
:10200000491C01F01F0109294FEA403132D800294B
:1020100012D000BF90FAA0F1B1FA81F101F10101F3
:1020200001F01F0106FA01F609D100BFC0F3846177
:1020300009E0C0F38461E3E7C0F38461EEE790FA5E
:10204000A0F1B1FA81F101F1010101F01F0146EAAD
:10205000816102D1C0F3846003E090FAA0F0B0FA8D
:1020600080F000F1010000F01F0000EB400041EAA9
:10207000005132E000290ED090FAA0F1B1FA81F1BE
:1020800001F1010101F01F0106FA01F606D100BFBE
:10209000C0F3846106E0C0F38461F1E790FAA0F137
:1020A000B1FA81F101F1010101F01F0146EA8161FC
:1020B00002D1C0F3846003E090FAA0F0B0FA80F09F
:1020C00000F1010000F01F002D4A00EB400002EB80
:1020D000005041EA000141F00071AA68206802F056
:1020E00073FF28482A6802423FF466AE264881689A
:1020F000264B01F0E0719A4202D0254B9A421CD146
:102100000B021AD42268B2F1A04F7FF455AE826858
:1021100041F4000122F0E0720A4382601D481E492A
:102120000068B0FBF1F0401C00EB4000800000E0D4
:10213000401E00900028FBD13EE6184D184BAA42E5
:1021400007D1CD0105D422689A42F5D041F08071C3
:1021500009E0144DAA42EFD14A02EDD422689A4216
:10216000EAD041F48001826822F0E0720A43826082
:1021700022E6000000007F4000F0FF03FFFF0700A1
:10218000000020FE0000088000030050000021C372
:102190001000C09008000020400D0300000052C74E
:1021A00000010050000084CB70477047704700006A
:1021B0002DE9F05F0446006806684568DFF854B210
:1021C000DBF8080000F01F07B0070ED5A8070CD5F4
:1021D000E06DC00603D4E06D40F40060E065204689
:1021E000FFF75EFD216802200860DFF82CA270076F
:1021F0004FF0A04801D5680703D4300737D528072A
:1022000035D5E06DC00603D4E06D40F40070E065A4
:10221000206802F0D1FE20B32068504501D142462B
:1022200000E00246824208D03FB1052F05D0092FB9
:1022300003D0504503D1414602E0C16801E00146A8
:10224000C96889040DD4016809070AD502F0ACFEFB
:1022500058B3E06D40F01000E065206E40F00100E2
:1022600020662046FFF7A0FF21680C200860B0061A
:1022700001D5A80603D4700658D5680656D5E06D7A
:10228000C00603D4E06D40F40050E0652068C16CE6
:1022900011F4C07F1AD00021894602F08DFE02465B
:1022A0002068504514D1434613E02068416821F06E
:1022B0000C014160E06D20F48070E065E06DC004C9
:1022C000CFD4E06D40F00100E065CAE70121E3E70B
:1022D0000346834208D03FB1062F05D0072F03D015
:1022E000504503D1414602E0C16801E00146C9689A
:1022F000B9F1000F14D08B0102D58AB18A040FD432
:10230000026852060CD589020AD402F049FEE8B3ED
:10231000E06D40F01000E065206E40F001002066A6
:102320002046FFF7BEFC21686020086030060BD510
:10233000280609D5E06D40F48030E065204600F0C5
:1023400067F9216880200860F0050CD5E8050AD5FA
:10235000E06D40F40030E0652046FFF7A4FC216802
:102360004FF480700860B0050CD5A8050AD5E06D63
:1023700040F48020E0652046FFF796FC21684FF48A
:1023800000700860F0062ED5E80600E008E02AD5C7
:10239000E06BD0B1AFB1DBF8080000F4604013E0AF
:1023A0002068416821F060014160E06D20F48050B8
:1023B000E065E06DC005B3D4E06D40F00100E0657C
:1023C000AEE72068C068C00750B1E06D40F480609F
:1023D000E065206E40F0020020662046FFF7E6FE32
:1023E000216810200860700512D5680510D5E06DD1
:1023F00040F48040E065206E40F0080020662168CF
:102400004FF4806008602046BDE8F05FFFF74ABCEB
:10241000BDE8F09F0003005000010050F8B54FF0F8
:10242000000504002E46009502D0E06D10B107E0D3
:102430000120F8BD204600F0EDF8266684F85860CB
:1024400020688168C1F3407119B18168684A114000
:10245000816020688168C1F3007189B98168654A2B
:10246000114041F080518160634864490068B0FBCD
:10247000F1F04000801C00E0401E00900028FBD1DD
:1024800020688168C1F3007141B9E16D41F010012C
:10249000E165216E41F001012166012502F084FD14
:1024A000E16DC90600D430B1E06D40F01000E06588
:1024B00001252846F8BDE06D20F4807040F0020050
:1024C000E0652068806810F0010F11D14FF0A04046
:1024D00080684B4900F00100896801F00101084360
:1024E00006D148486168826822F47C120A438260FF
:1024F000E168E06B627F0843A16841EA423108432A
:1025000094F8241040EA0140012904D1218D3E4A6B
:1025100002EB41410843E16A29B101F47871226B71
:10252000014342EA01002268D168384B1940014357
:10253000D16020680169626B21F040611143016143
:10254000206802F02DFD70BB207F94F838108003C6
:1025500040EA41022168C86844F2020398431043EC
:10256000C86020690028206801690AD041F48031E0
:102570000161206850F8C01F22696FF30D011143FB
:1025800007E021F480310161206850F8C01F6FF32B
:102590000D01016094F8400001280CD02068016909
:1025A00021F001010161606901282068016B21F0BF
:1025B0000F0111D013E0D4E911010843D4E913123B
:1025C0001143084321680A6940F2FC739A4310439F
:1025D00040F001000861E6E7226A521E11430163E0
:1025E000E06D20F0020040F00100E06561E70000CE
:1025F000C0FFFF5FC0FFFF7F08000020400D030009
:1026000000010050000300500000FEFF0740F0FFF3
:102610007047000070B598B00546142111A8FDF769
:10262000BBFF44216846FDF7B7FF2868B0F1A04F13
:1026300057D14FF40040009080030F90684600F09F
:10264000CDFC08B1FFF7E0FA2749C86C40F4005010
:10265000C864C86C00F400501690C86C40F00100CB
:10266000C864C86C00F001001690C86C40F002000D
:10267000C864C86C11A900F0020016900F20032452
:10268000002681E851004FF0904000F077FA11A940
:102690004FF4804081E85100144800F06FFA154C67
:1026A000134820600520C4E901068020C4E90360C6
:1026B000400060618000A0612020E0614FF4405044
:1026C0002062204600F05EF908B1FFF79DFA6C65C4
:1026D000002201211220A56200F0E8FB122000F088
:1026E000D7FB18B070BD0000001002400004004885
:1026F00008040240580100202DE9F0410446344806
:1027000017468846806800F01F05206802F04CFCE0
:1027100000285AD194F85800012856D0012084F896
:102720005800002625B1052D02D0092D00D003E068
:102730002046FEF7E7FF18B184F85860BDE8F08145
:10274000E06D40F60161884340F48070E065214906
:102750002068884202D14FF0A04100E0014681424A
:1027600000D01DB9E06D20F48010E065E06DC0047C
:1027700004D5206E20F00600206600E02666616D1C
:102780001548C862616D15480863616D1448486357
:1027900021681C20086084F858602068416841F076
:1027A000100141602068C16841F00101C1602168E9
:1027B0003B4642464031606D00F044F921688A682A
:1027C000084B1A40121D8A60B8E70220B6E70000E5
:1027D0000003005000010050091600088B16000885
:1027E00071160008C0FFFF7F10B590F8253000215A
:1027F0000122022B03D00421C163012122E00368DE
:102800001C6824F00E041C60836C1C6824F4807423
:102810001C6003681C6824F001041C6090F84430BC
:10282000046C03F01F0302FA03F36360D0E913346E
:102830005C60436D33B11C6824F480741C60D0E983
:1028400016345C6080F82520002280F82420084699
:1028500010BD70B590F82520002401212346022ADE
:1028600007D00422C26380F8251080F824300124A8
:1028700029E00268156825F00E05156002681568E4
:1028800025F001051560826C156825F480751560CA
:1028900090F84420056C02F01F0201FA02F26A600F
:1028A000D0E913255560426D32B1156825F4807565
:1028B0001560D0E91625556080F8251080F8243081
:1028C000816B01B18847204670BDF0B4016C0C6883
:1028D00001680D6890F8442002F01F06042202FAF5
:1028E00006F3234211D06B070FD50B689B0603D468
:1028F0000B6823F004030B6090F8441001F01F01F3
:102900008A40016C4A60016B1DE0022303FA06F75E
:1029100027424FF0000C4FF0010218D0AF0716D538
:102920000C68A40605D40C6824F00A040C6080F836
:10293000252090F8441001F01F018B40016C4B6082
:1029400080F824C0C16A00291AD0F0BC08470823C7
:10295000B340234214D02B0712D50B6823F00E038B
:102960000B6090F84410036C01F01F0102FA01F1B2
:102970005960C26380F8252080F824C0416BE2E7EB
:10298000F0BC704770B504000CD02B4A21681420AD
:10299000914209D2294A0A44B2FBF0F080006064F7
:1029A00027480AE0012070BD234A52420A44B2FB84
:1029B000F0F080006064204808382064022084F829
:1029C00025000A6847F6F0708243D4E902031843F1
:1029D000D4E904352B431843A3691843E36918432A
:1029E000236A1843104308602046FEF7DBFFA06807
:1029F0000025B0F5804F00D16560A16C207908609A
:102A0000D4E9130141606068401E032808D82046BD
:102A1000FEF7E8FF606D0560D4E91601416002E051
:102A20006565A565E565E563012084F8250084F802
:102A30002450002070BD000008040240F8FFFDBFD4
:102A40000000024070B5044690F8240000250128DB
:102A50000CD0012084F8240094F825600020012E79
:102A600006D084F824000225284670BD022070BDDF
:102A7000022684F82560E0632068066826F00106D7
:102A800006602046FEF7C0FF206B00282068016822
:102A900002D041F00E0106E021F00401016020683F
:102AA000016841F00A010160A06C0168C90303D507
:102AB000016841F480710160606D18B1016841F4F2
:102AC000807101602068016841F001010160CBE77D
:102AD00070B51F4C0625B0F5005F08D0B0F5804FEB
:102AE00022D0B0F5807F01D10720207070BD00207A
:102AF00002F040FA012002F045FA0020FEF795FEB0
:102B0000144801F055FB144801F052FB134801F042
:102B10004FFB134801F04CFB2078401C40B290FB67
:102B2000F5F105FB1100E0E7012002F023FA002097
:102B300002F028FA0120FEF778FE064801F074FB47
:102B4000064801F071FB064801F06EFB257070BD70
:102B500000000020D00300201C0400206804002096
:102B6000B4040020044910B50A68024202D008608B
:102B7000FFF7AEFF10BD0000140401402DE9F04F37
:102B8000DFF82092002301260324A9F1040B85B06D
:102B90000F2709F1040AABF1040EFAE006FA03F577
:102BA0002A407CD091F804C00CF0030CBCF1010F5A
:102BB00002D0BCF1020F26D1D0F808C0CDF800C079
:102BC0004FEA430C04FA0CF8CDF810C0DDF800C051
:102BD0002CEA080CCDF800C0D1F80C80DDF810C04C
:102BE00008FA0CF8DDF800C048EA0C08C0F80880C4
:102BF000D0F804C02CEA050C0D79C5F300159D40F2
:102C000045EA0C0545600D79ED43AD070ED0C5686A
:102C10004FEA430804FA08FC25EA0C05D1F808C07D
:102C20000CFA08FC4CEA050CC0F80CC00D7905F054
:102C30000305022D16D1DD0800EB850CCDF808C088
:102C4000DCF820805D074FEAD56C07FA0CF528EA1E
:102C500005080D6905FA0CF5DDF808C045EA080518
:102C6000CCF8205005684FEA430CCDF808C004FAB0
:102C70000CFC25EA0C0591F804C00CF00308DDF803
:102C800008C008FA0CF848EA0508C0F800804D684A
:102C900015F4403F7CD0444DD5F860C000E077E0AB
:102CA0004CF0010CC5F860C02D6E23F0030C05F04C
:102CB000010500953D4D65440295AD684FEA837C62
:102CC0004FEA1C7807FA08FC25EA0C05B0F1904F92
:102CD00006D0DFF8DCC0604505D14FF0010C20E0E4
:102CE0004FF0000C1DE0DFF8CCC0604502D14FF082
:102CF000020C16E0DFF8C0C0604502D14FF0030CB3
:102D00000FE0DFF8B8C0604502D14FF0040C08E0D6
:102D1000DFF8ACC0604502D14FF0050C01E04FF088
:102D2000060C0CFA08FC4CEA050C029DC5F808C01C
:102D3000D9F80050CC46D1F8048095435FEAC82802
:102D400000D51543CCF80050DAF80050D446D1F83D
:102D5000048095435FEA882800D51543CCF80050DD
:102D6000DBF80050DC46D1F8048095435FEA8838F0
:102D700000D51543CCF80050DEF80050F446D1F8E9
:102D8000048095435FEAC83800D51543CCF800505D
:102D90005B1C0A6832FA03F57FF400AF05B0BDE8AA
:102DA000F08F0000080401400010024000000140C4
:102DB0000004004800080048000C004800100048CB
:102DC000001400480AB181617047816270470000B9
:102DD00001488068704700000C00002002488168AC
:102DE00042681144816070470C00002010B5002437
:102DF000032000F07BF8002000F008F808B101245F
:102E000001E000F025F8204610BD000070B50E4E20
:102E100005460024706898B14FF47A71B1FBF0F068
:102E20000A490968B1FBF0F000F0E2FF40B9102D4B
:102E300006D200222946501E00F038F8356000E026
:102E40000124204670BD00000C0000200800002076
:102E50000E4808B5016E41F001010166016E01F0F6
:102E600001010091816D41F080518165806D00F01C
:102E700080500090052000F039F800F0A7FF0220F4
:102E800000F0ACFFBDE8084000F0A0B80010024020
:102E9000002809DB00F01F02012191404009800059
:102EA00000F1E020C0F8001170470000F0B40E4BB4
:102EB0001B680C46C3F30223C3F10705042D00D998
:102EC0000425191D072901D2002300E0DB1E01267D
:102ED00006FA05F1491E214099409E40761E164093
:102EE0003143F0BC04F081B80CED00E0064900F07D
:102EF000070208684FF6FF03184040EA0220034A21
:102F000010430860704700000CED00E00000FA0577
:102F10002B492C4B0A6832214A432B4940B1B0F56A
:102F2000007F086829D020F4C06040F480602CE065
:102F30000868C0F34120022804D051F8800F20F423
:102F4000807022E0D1F8800020F48070C1F8800009
:102F5000086820F4C06040F400700860B2FBF3F031
:102F6000401C00E0401E4A69520501D50028F9D1F5
:102F7000486940050AD503207047C0F34120022864
:102F800006D051F8800F40F4807008600020704730
:102F9000D1F8800040F48070C1F88000086820F407
:102FA000C06040F400700860B2FBF3F0401C00E029
:102FB000401E4A695205DBD50028F9D1D8E7000048
:102FC0000800002040420F00007000400248816865
:102FD00041F4804181607047007000402DE9F84362
:102FE0000446006800269D4D00035ED5A86D0027AD
:102FF000C00008D4A86D40F08050A865A86D0127D6
:1030000000F080500090DFF85892D9F8001041F499
:103010008071C9F80010FFF7DBFE804606E000BFB4
:10302000FFF7D6FEA0EB080002282BD8D9F8000045
:10303000C005F5D5D5F8900010F4407014D0216C7F
:10304000814211D0D5F89000D5F8901020F440704E
:1030500041F48031C5F89010D5F8901021F48031FA
:10306000C5F89010C5F89000C00711D0FFF7B0FE6A
:10307000804641F2883907E0FFF7AAFEA0EB08017D
:10308000494501D903260BE0D5F890008007F3D518
:10309000D5F89000216C20F440700843C5F89000EA
:1030A0001FB1A86D20F08050A8652078C00707D018
:1030B000D5F88800616820F003000843C5F888004F
:1030C0002078800707D5D5F88800A16820F00C008B
:1030D0000843C5F888002078400707D5D5F8880050
:1030E000E16820F030000843C5F888002078000728
:1030F00007D5D5F88800216920F0C0000843C5F83D
:1031000088002078800607D5D5F88800616920F40A
:1031100040600843C5F888002078400607D5D5F8F8
:103120008800A16920F440500843C5F88800207841
:10313000000607D5D5F88800E16920F4404008432F
:10314000C5F888002088C00507D5D5F88800216A11
:1031500020F440300843C5F888002088800507D552
:10316000D5F88800616A20F440200843C5F888003B
:10317000208840050FD5D5F88800A16A20F44010BA
:103180000843C5F88800A06AB0F5801F03D1E8683D
:1031900040F48010E860208800050FD5D5F888003D
:1031A000E16A20F440000843C5F88800E06AB0F501
:1031B000800F03D1E86840F48010E8602088C004E4
:1031C0000FD5D5F88800216B20F040700843C5F872
:1031D0008800206BB0F1807F03D1E86840F4801054
:1031E000E86020884FF0006180040ED5D5F8880093
:1031F000626B20F040601043C5F88800606B884225
:1032000003D1E86840F48010E860208840040ED5BF
:10321000D5F88800A26B20F040601043C5F8880004
:10322000A06B884203D1E86840F48010E8602088F1
:1032300000040FD5D5F88800E16B20F0405008431A
:10324000C5F88800E06BB0F1805F03D1E86840F416
:103250008030E8603046BDE8F8830000001002408E
:10326000007000402DE9F0470E4605004FF00007C2
:1032700025D0DFF8AC81D8F8000000F00F00B04294
:103280000CD2D8F8001021F00F013143C8F800101B
:10329000D8F8000000F00F00B04210D12968614C4E
:1032A000C80741F2883A5AD06868DFF87C91032851
:1032B00008D0022820682DD0400500282CDB0120F2
:1032C000BDE8F08720688001F9D5E06800F00302CE
:1032D000E068C0F30310401C032A19D0534A00BF12
:1032E000B2FBF0F0E268C2F306225043E268C2F398
:1032F0004162521C5200B0FBF2F0484517D9A06859
:1033000010F0F00F0CD0880711D5A86840B10EE07E
:10331000474AE5E78003D0E700F0B6F8484506D90C
:10332000A06820F0F00040F08000A0608027A06836
:10333000696820F003000843A060FFF749FD81465B
:1033400006E000BFFFF744FDA0EB090151453AD864
:10335000A068696800F00C00B0EB810FF2D128681A
:10336000810714D5400703D5A06840F4E060A06051
:103370002878000705D5A06820F4605040F4E0608C
:10338000A060A068A96820F0F000084304E0802F46
:1033900003D1A06820F0F000A060D8F800104046EB
:1033A00001F00F01B14216D9016821F00F0131433C
:1033B0000160FFF70DFD074607E000BFFFF708FDBE
:1033C000C11B514501D903207AE7D8F8000000F06D
:1033D0000F00B042F2D12878400705D5A068E9680F
:1033E00020F4E0600843A0602878000706D5A068B4
:1033F000296920F4605040EAC100A06000F044F860
:10340000A1680C4AC1F30311515C01F01F01C840CF
:103410000949086009480068BDE8F047FFF7F6BCB5
:10342000002002400010024000B4C4040024F40054
:1034300000127A008A780008080000200C000020A2
:103440000548064900688968054AC1F30221515CB4
:1034500001F01F01C8407047080000200010024022
:103460009A7800080548064900688968054AC1F34A
:10347000C221515C01F01F01C840704708000020C4
:10348000001002409A780008184910B58868C0F307
:1034900081021748012A0BD08A684310C2F38102C7
:1034A000022A06D08A68C2F38102032A03D00020D0
:1034B00010BD184610BDCA6802F00304CA68C2F302
:1034C0000312521C032C02D0B0FBF2F001E0B3FB5C
:1034D000F2F0CA68C968C2F306225043C1F34161E1
:1034E000491C4900B0FBF1F010BD00000010024083
:1034F0000024F4002DE9F84304007AD02078F84D38
:10350000C00747D0A868E96800F00C0001F003018B
:103510000C2802D0082817D001E0032914D06068D5
:10352000B0F5803F17D0B0F5A02F286817D020F451
:1035300080302860286820F4802028606068E0B12E
:10354000FFF746FC064614E02868800322D5606831
:103550000028D2D01EE0286840F48030EDE740F427
:1035600080202860F7E700BFFFF732FC801B64284B
:1035700070D828688003F7D50CE0FFF729FC0646D1
:1035800005E000BFFFF724FC801B6428F0D8286802
:103590008003F7D4207880074CD5A868E96800F04C
:1035A0000C0001F003010C2802D004280DD001E02A
:1035B00002290AD0E068002828682BD040F48070E7
:1035C0002860FFF705FC064619E02868400502D58B
:1035D000E068002891D06868217C20F0FE4040EA35
:1035E00001606860BF480068FFF710FC002800D148
:1035F00020E072E1FFF7ECFB801B0228B8D82868B6
:103600004005F7D56868217C20F0FE4040EA016063
:1036100068600FE020F480702860FFF7D9FB064651
:1036200005E000BFFFF7D4FB801B0228A0D8286864
:103630004005F7D42078000729D560690028D5F81F
:10364000940013D040F00100C5F89400FFF7C0FBD0
:10365000064606E090E000BFFFF7BAFB801B022899
:1036600086D8D5F894008007F6D510E020F0010048
:10367000C5F89400FFF7ACFB064604E0FFF7A8FB93
:10368000801B022878D8D5F894008007F6D42078DB
:10369000400761D5A86D0026C00008D4A86D40F091
:1036A0008050A865A86D012600F0805000908E48DB
:1036B0000168C90511D40168804641F48071016038
:1036C000FFF786FB074604E0FFF782FBC01B0228DA
:1036D00052D8D8F80000C005F6D5A068012815D04A
:1036E0000528D5F8900016D020F00100C5F890000C
:1036F000D5F8900020F00400C5F89000A06841F2D1
:103700008838B8B1FFF764FB07460EE0D5F89000A3
:1037100040F00100F0E740F00400C5F89000F5E744
:10372000FFF756FBC11B414526D8D5F8900080070E
:10373000F6D50CE0FFF74CFB074604E0FFF748FB2B
:10374000C11B414518D8D5F890008007F6D41EB1AA
:10375000A86D20F08050A8652078800629D5A06942
:103760000028D5F8980013D040F00100C5F8980063
:10377000FFF72EFB064606E075E000BFFFF728FBCB
:10378000801B02286FD8D5F898008007F6D510E086
:1037900020F00100C5F89800FFF71AFB064604E088
:1037A000FFF716FB801B02285DD8D5F8980080072C
:1037B000F6D4E069F0B3A968C1F3810103295DD0B3
:1037C0000228286820F08070286003D0FFF700FBF3
:1037D00004464BE0FFF7FCFA064604E0FFF7F8FA70
:1037E000801B02283FD828688001F7D4F4E908013B
:1037F0006FF00F0202EB01110843218A52044908BD
:1038000002EB4151A26841EA02210843217D4FF0B9
:103810007E42490802EB41610843217B40EAC160D6
:10382000E968324A11400843E860286840F0807037
:10383000286000E05EE0E86840F08070E860FFF734
:10384000C7FA044605E000BFFFF7C2FA001B0228D2
:1038500009D828688001F7D54CE000BFFFF7B8FA17
:10386000001B022802D90320BDE8F88328688001E4
:10387000F4D4E8681E490840E8603BE00128F3D032
:10388000E868226A00F00301914226D1616A00F0E3
:10389000F0020901103991421FD1A26A00F4FE41E1
:1038A000B1EB022F19D194F82C2000F07841B1EB44
:1038B000C26F12D1218E00F4C00249084905A1F55A
:1038C0000011914209D194F8341000F0C060490809
:1038D0004906A1F1007181420CD00120C4E700002B
:1038E000001002400C000020007000400C809F017E
:1038F000FCFFEEFE0020B7E77047000038B5016816
:1039000004464A688868C043430606D5C30704D105
:10391000D3435B0601D4E16C05E0830708D4D343AD
:103920001B0605D4216D01B02046BDE83040084794
:10393000830603D5430601D5C30551D4D3439B0663
:103940004ED443060AD494F85D30032B49D0236E3D
:1039500043F004032366CB688B680093830609D485
:10396000236E43F0010323668B6800930B6823F0FA
:1039700040030B60C00506D4206E40F008002066AE
:10398000206880680090206E002829D02068416857
:1039900021F0E0014160012084F85D00900701D42E
:1039A000D00722D02068416821F003014160114D09
:1039B000A06D40B18563A06DFEF74BFF18B1206E7E
:1039C00040F040002066606D002809D08563606D7E
:1039D000FEF73FFF002803D0206E40F04000206635
:1039E00038BDC8688868009038BD2046FFF784FF5E
:1039F00038BD0000F156000870B5040009D0606AB7
:103A0000002540B125616561A56294F85D0040B173
:103A10000CE0012070BD6068B0F5827FF4D0E561F4
:103A2000F2E784F85C50204600F05CF8022084F84D
:103A30005D002068016821F040010160E1684FF4F9
:103A4000E062914201D9002001E04FF48050B1F5CD
:103A5000706F02D0914200D0A562A188228901F442
:103A6000827102F404421143227C02F002021143EB
:103A7000227D02F001021143228B02F400721143F5
:103A8000227F02F03802114394F8202002F08002D5
:103A90001143228D02F40052114322681160A16982
:103AA000042202EA114194F8242000F4805002F02C
:103AB0001002114394F8342002F008021143A28945
:103AC00002F4706211430143206841602068C169BB
:103AD00021F40061C1612566012084F85D000020A9
:103AE00070BD00002DE9F04786B0054614216846F8
:103AF000FCF752FD3149286888425BD13048016E9D
:103B000041F480510166016E01F480510591C16C50
:103B100041F00101C164C06C4FF0000A00F00100E7
:103B20000590E02000900220CDE9010A03200390D7
:103B300005200490574669464FF09040FFF71EF865
:103B4000214C20484FF4807820600A20C4E9010706
:103B50008026C4F81480C4E903764FF48069C4E970
:103B60000697770120462762FEF70CFF08B1FEF7A3
:103B70004BF8AC65A562144C12486034143001C493
:103B80000B2001C4102001C45046A4E841030E4894
:103B900064E807A76030FEF7F5FE08B1FEF734F8D9
:103BA0006C65002211462320A562FFF77FF92320D0
:103BB000FFF76EF906B0BDE8F08700000030014065
:103BC0000010024008000240C40200207047704705
:103BD00070B5044690F85D006568012806D0B5F51B
:103BE000827F32D1A5687DBB04282ED151B34AB360
:103BF00043B394F85C00012827D0012084F85C00CE
:103C000094F85D50042D02D0052584F85D50002500
:103C10002566A163A387E3872264A4F84430A4F84F
:103C20004630E564256521684A6822F4C0424A604E
:103C3000E168B1F5E06F0AD92068416821F480514C
:103C4000416035E0012070BDFFE70220FBE72168FD
:103C50004A6842F480524A60616D4FF4806289691B
:103C600091420CD194F83C10C90721684B6838D0B8
:103C700043F480434B60E18F00EB5101E187A16D7C
:103C80008969914214D121684A6822F480524A60BD
:103C9000B4F84610C9072AD021684A6842F4005295
:103CA0004A60B4F8461000EB510000BFA4F846008B
:103CB00094F85D00042823D0A16D2D4808632D4899
:103CC000A16DC862A16D2C484863A06D8563B4F8EE
:103CD00046302168226C0C31A06DFEF7B3FE48BB64
:103CE00013E023F480434B60E18F4908C6E7206866
:103CF000416821F400514160B4F846004008D5E71E
:103D0000A16D1E4808631E48DAE72068416841F04B
:103D100001014160606D0563606DC562606D456362
:103D2000606D8563E38F2268A16B0C32606DFEF7D6
:103D300089FE30B1206E40F01000206684F85C509F
:103D400080E720680168490603D4016841F040011A
:103D5000016084F85C502068416841F020014160B6
:103D60002068416841F00201416000206BE70000DB
:103D70002F570008A55700080357000825570008CB
:103D8000395700080C4910B5884214D1012210217E
:103D90000A48FFF717F80A4CA08E03F03DF9DFED53
:103DA000090A30EE200AF2EE060A84ED0B0A20EE34
:103DB000200A84ED0A0A10BD6002002000080048B5
:103DC000C40100209CC47040704700000248016B91
:103DD00021F00101016370470000014003490A6BB3
:103DE00022F0020202430A63704700000000014013
:103DF00010B5401EB0F1807F01D3012010BD4FF0FF
:103E0000E02460610F21601703F0EFF80020A0614B
:103E100007202061002010BD7047704770470000E8
:103E200030B590F83C20012A42D0012280F83C2095
:103E3000CA688B6822F440721A434B6822F480628D
:103E40001A430B6822F400621A430B6922F4805271
:103E50001A434B6922F400521A430B6B22F480423E
:103E60001A430B8B22F4702242EA0342CB6922F000
:103E700080521A430F4D03680024AB4202D00E4D0E
:103E8000AB4210D10D8D22F4700242EA05520D6A48
:103E900022F080722A434D6A22F000722A43C96AD6
:103EA00022F000520A435A6480F83C40002030BDA2
:103EB000022030BD002C01400034014070477047A3
:103EC00070470000F0B590F83C20012A3AD0012557
:103ED00080F83C50022280F83D2003685A689C68B4
:103EE000194E1A4FB34201D0BB4204D122F4700CD8
:103EF0004A6842EA0C02DFF858C002EA0C02D1F824
:103F000000C04CEA020CC3F804C00268B2420DD0F3
:103F1000B2F1804F0AD00F4B9A4207D00E4B9A4213
:103F200004D0BA4202D00D4B9A4204D1896824F0E1
:103F300080031943916080F83D50002180F83C10C7
:103F40000846F0BD0220F0BD002C014000340140C5
:103F50008FFFFFFD000400400008004000400140CA
:103F600010B50446022249B104290ED0082913D005
:103F700094F84700012816D0012010BD94F84400A1
:103F80000128F9D184F844200FE094F84500012875
:103F9000F2D184F8452008E094F846000128EBD1DE
:103FA00084F8462001E084F847200422206801F0CC
:103FB000E6FF2068416C41F40041416410492068EB
:103FC00088420ED0B0F1804F0BD00E49884208D005
:103FD0000D49884205D00D49884202D00C498842DB
:103FE00007D181680B4A1140062906D0B1F5803F00
:103FF00003D0016841F001010160002010BD000004
:10400000002C014000040040000800400034014042
:104010000040014007000100704710B5040003D0C4
:1040200094F83D0010B107E0012010BD002084F895
:104030003C00204600F022F8022084F83D00211DBB
:10404000206801F031FF012084F8480084F83E0028
:1040500084F83F0084F8400084F8410084F842006E
:1040600084F8430084F8440084F8450084F846004E
:1040700084F8470084F83D00002010BD08B52C4AA4
:1040800001682C48914207D1016E41F4006101663C
:10409000006E00F400603FE0B1F1804F11D0264A7D
:1040A00091421DD1816D41F002018165806D012237
:1040B00000F00200009011461D20FEF7F7FE1D20C3
:1040C00031E0816D41F001018165806D002200F0D9
:1040D0000100009002211C20FEF7E8FE1C2022E0D7
:1040E000164A91420ED1816D41F004018165806DC7
:1040F000002200F00400009011461E20FEF7D6FEBC
:104100001E2010E00E4A914211D1016E41F480311F
:104110000166006E00F480300022009011461820E5
:10412000FEF7C4FE1820BDE80840FEF7B1BE08BD8A
:10413000002C014000100240000400400008004034
:104140000040014090F83D10012901D00120704746
:10415000022180F83D1000680F4988420ED0B0F16E
:10416000804F0BD00D49884208D00D49884205D0B8
:104170000C49884202D00C49884207D181680B4A19
:104180001140062906D0B1F5803F03D0016841F007
:104190000101016000207047002C01400004004034
:1041A00000080040003401400040014007000100C9
:1041B00090F83D10012901D001207047022180F8BC
:1041C0003D100168CA6842F00102CA6000681049E7
:1041D00088420ED0B0F1804F0BD00E49884208D0F3
:1041E0000D49884205D00D49884202D00C498842C9
:1041F00007D181680B4A1140062906D0B1F5803FEE
:1042000003D0016841F00101016000207047000007
:10421000002C014000040040000800400034014030
:1042200000400140070001000168CA6822F0010255
:10423000CA6001680A6A41F211131A4207D10A6A78
:104240009B001A4203D10A6822F001020A60012190
:1042500080F83D100020704770B5044690F83C008F
:104260000025012814D0012684F83C60022084F83F
:104270003D0022689068364B184020F47F409060E3
:10428000086870282ED010DC10F00F0F03D021E04A
:104290004FF0020070BD4FEA2012072A1AD2DFE861
:1042A00002F0525252524A3840002A4BC21A9842E7
:1042B00049D009DCB0F5805F0DD0B0F5005F1CD0AF
:1042C000B0F1101F06D13EE0102A3CD0202A3AD08F
:1042D000502A38D0012584F83D60002084F83C0045
:1042E000284670BDCB68D1E90121206801F054FE59
:1042F0002068816841F0770109E0CB68D1E90121AC
:10430000206801F049FE2068816841F480418160A5
:10431000E1E7CA684968206801F0E8FF5021206899
:1043200006E0CA684968206801F0F1FF6021206852
:1043300001F03CFECFE7CA684968206801F0D6FF6B
:1043400040212068F4E7226801461046F0E70000AB
:1043500088FFCEFF2000100070472DE9F041044691
:104360000068C66805694FF00007A90713D5B107B3
:1043700011D5F91E0161012020772068806980072E
:10438000204602D0FFF7E8FF04E000F0F5F82046F1
:1043900000F0B7F92777680716D5700714D521689C
:1043A0006FF004000861022020772068806910F413
:1043B000407F204602D0FFF7CFFF04E000F0DCF89A
:1043C000204600F09EF92777280715D5300713D52A
:1043D00021686FF008000861042020772068C06918
:1043E0008007204602D0FFF7B7FF04E000F0C4F8D2
:1043F000204600F086F92777E80616D5F00614D592
:1044000021686FF010000861082020772068C069DB
:1044100010F4407F204602D0FFF79EFF04E000F03A
:10442000ABF8204600F06DF92777E80708D0F007D1
:1044300006D021686FF001000861204600F0E0F925
:10444000280601D4A80408D5300606D521686FF4E3
:10445000025008612046FFF7E0FCE80508D5300669
:1044600006D521686FF4807008612046FFF7D4FC00
:10447000680608D5700606D521686FF0400008610F
:10448000204600F01DFAA80608D5B00606D521681A
:104490006FF0200008612046FFF7C0FCE80208D555
:1044A000F00206D521686FF4801008612046FFF7FE
:1044B00006FDA80208D5B00206D521686FF40010E9
:1044C00008612046FFF7FAFC680208D5700206D59D
:1044D00021686FF4800008612046FFF7F1FC280294
:1044E0000AD5300208D521686FF400000861204623
:1044F000BDE8F041FFF790BDBDE8F08170B586B032
:10450000044614216846FCF747F818492068884299
:104510002AD11748C16C41F00201C164C16C01F09D
:1045200002010591C16C41F00101C164C06C02251A
:1045300000F00100059042F2030000900024CDE954
:1045400001540626CDE9034669460A48FEF716FBE4
:104550004FF4E0600090CDE90154CDE9034669468F
:104560004FF09040FEF70AFB06B070BD002C0140F2
:104570000010024000040048704770B5044690F8EF
:104580003C0000260D4601280BD0012084F83C0099
:104590000C2A4AD007DC82B1042A20D0082A06D18E
:1045A00031E0022070BD102A53D0142A63D00126B6
:1045B000002084F83C00304670BD206801F000FD0A
:1045C0002068816941F0080181612068816921F0DA
:1045D00004018161206881692A69114311E0206822
:1045E00001F03CFD2068816941F40061816120682F
:1045F000816921F480618161206881692A6941EAC9
:1046000002218161D4E7206801F070FD2068C16952
:1046100041F00801C1612068C16921F00401C16154
:104620002068C1692A69114311E0206801F0A6FDE4
:104630002068C16941F40061C1612068C16921F449
:104640008061C1612068C1692A6941EA0221C161B2
:10465000AEE7206801F0DAFD2068016D41F0080145
:1046600001652068016D21F0040101652068016D7C
:104670002A69114311E0206801F000FE2068016DF5
:1046800041F4006101652068016D21F480610165DC
:104690002068016D2A6941EA0221016588E710B5A9
:1046A000040003D094F83D0010B107E0012010BDD4
:1046B000002084F83C00204600F022F8022084F814
:1046C0003D00211D206801F0EFFB012084F8480027
:1046D00084F83E0084F83F0084F8400084F84100EC
:1046E00084F8420084F8430084F8440084F84500CC
:1046F00084F8460084F8470084F83D00002010BD8F
:104700007047704730B50446022269B1042912D0BF
:10471000082917D00C291CD0102921D094F8430067
:10472000012824D0012030BD94F83E000128F9D1A1
:1047300084F83E201DE094F83F000128F2D184F86F
:104740003F2016E094F840000128EBD184F8402087
:104750000FE094F841000128E4D184F8412008E0FA
:1047600094F842000128DDD184F8422001E084F869
:1047700043200122206801F0F5FB194B20681949FC
:10478000194A984209D0884207D0904205D0174D67
:10479000A84202D0164DA84203D1456C45F400450D
:1047A0004564206898420CD0B0F1804F09D0114B7D
:1047B000984206D0104B984203D0884201D09042D4
:1047C00007D181680D4A1140062906D0B1F5803F16
:1047D00003D0016841F001010160002030BD0000FC
:1047E000002C0140003401400040014000440140E1
:1047F000004801400004004000080040070001009C
:1048000070B504462248234D84421CD12846DFED72
:10481000220A9FED220AFDF73DF8284600F05AFBD8
:1048200005F12002A2F10801164601F1400000F056
:10483000D9FEA5F10C0395ED0A0A194A03F14401CA
:10484000304601F009F91748844208D116494888D2
:10485000401C48800F4915483431FCF7B7FF144815
:10486000844213D195ED0B0ADFED121A9FED121A57
:10487000DFED120A02F05CFC064885ED0C0A883078
:1048800000F0FCFE0348583080ED000A70BD0000C7
:10489000D0030020C40100208FC2F53CB6F3ED3FE9
:1048A000840300201C04002000000020600200207F
:1048B00068040020CDCC4C3D560E494000007A449F
:1048C000704790F88410012918D0012180F88410D5
:1048D0002421C0F8881001680A680B6823F00103DE
:1048E0000B6022F00051002242660368196020210B
:1048F000C0F8881080F88420104670470220704766
:104900007047704770B5044690F8840001281DD0A8
:10491000012084F884002420C4F8880020680568F9
:10492000026822F0010202602068826822F0606260
:104930000A438260204601F0FDFC206805602020CB
:10494000C4F88800002084F8840070BD022070BD87
:1049500070B5044690F8840001281DD0012084F829
:1049600084002420C4F8880020680568026822F0CA
:10497000010202602068826822F060420A4382607D
:10498000204601F0D7FC206805602020C4F888008C
:10499000002084F8840070BD022070BD704770470D
:1049A000704700002DE9F04103680446D869196892
:1049B0009A6840F60F0528424FF000054FF00206B6
:1049C0000AD187067ED501F0200702F0805C57EA05
:1049D0000C0777D0616F42E1B64FDFF8DCC21740B9
:1049E00001EA0C0C57EA0C0C6CD05FEAC07C0CD0CE
:1049F0005FEAC15C09D54FF0010CC3F820C0D4F8C0
:104A0000903043F00103C4F89030830709D5D307F1
:104A100007D023681E62D4F8903043F00403C4F832
:104A2000903043070AD5D30708D0266804233362A1
:104A3000D4F8903043F00203C4F8903003070CD54B
:104A400001F020033B4308D0266808233362D4F8E2
:104A5000903043F00803C4F8903003050BD54B01A8
:104A600009D526684FF400633362D4F8903043F0E0
:104A70002003C4F89030D4F89030002B3DD080064D
:104A800009D501F0200002F08051084303D0616F86
:104A900009B120468847D4F8900021688968490602
:104AA00002D410F0280F2AD0204601F027FD2068FC
:104AB000806840061ED52068083050E8001F21F0AD
:104AC000400100E021E040E80012002AF3D1D4F8D0
:104AD000800078B179498163D4F88000FDF7B9FE90
:104AE00000280AD0D4F88000816B00E02046BDE8A1
:104AF000F04108472046FFF753FFBDE8F08120460C
:104B0000FFF74EFFC4F89050F7E7D4F86CC02027A9
:104B1000BCF1010F7ED15FEAC06C7BD55FEAC16C4E
:104B200078D51020186220688068400651D5D4F8E6
:104B300080100A6850680004000C3ED0B4F85C3065
:104B400083423AD9A4F85E000868006880062CD435
:104B5000216851E8000F20F4807041E80002002A2B
:104B6000F6D12068083050E8001F21F0010140E82C
:104B70000012002AF5D12068083050E8001F21F00B
:104B8000400140E80012002AF5D1C4F88C70E566B7
:104B9000216851E8000F20F0100041E80002002ACF
:104BA000F6D1D4F88000FDF71FFE2667B4F85C004C
:104BB000B4F85E10401A81B207E0B4F85C1081428C
:104BC0009BD11068800698D526672046FFF798FE8F
:104BD00093E7B4F85C00B4F85E10401A81B2B4F800
:104BE0005E00002889D0002987D0226852E8000F93
:104BF00020F4907042E80003002BF6D12D4BDB43EC
:104C00002068083050E8002F1A4040E8002CBCF122
:104C1000000F00E00EE0F3D1C4F88C70E566656724
:104C2000206850E8002F22F0100240E80023002BFB
:104C3000F6D1C9E7C60209D5560207D54FF4801050
:104C400018622046BDE8F041FFF7A9BE03060AD569
:104C500001F0800302F40002134304D0A16F002985
:104C60007FF444AF49E7420611D54A060FD52046E6
:104C7000016851E8002F22F0400241E80023002B98
:104C8000F6D1C0F88870856700F022F935E7020296
:104C900006D54A0004D52046BDE8F041FFF77EBEA8
:104CA000C00195D5002993DA2046BDE8F041FFF711
:104CB00028BE00000100001020010004ED6400087F
:104CC00010B5040003D0D4F8880010B107E001202B
:104CD00010BD002084F88400204600F027F824202E
:104CE000C4F888002068016821F001010160A06A11
:104CF00010B1204601F040FB204601F091FE012852
:104D0000E6D02068416821F49041416020688168C4
:104D100021F02A0181602068016841F001010160F1
:104D20002046BDE8104001F08BBB000010B598B0E4
:104D30000446142111A8FBF72FFC44216846FBF719
:104D40002BFC1A49206888422ED101200024CDE98D
:104D500000046846FEF742F908B1FCF755FF144815
:104D6000016E41F480410166016E01F480411691AB
:104D7000C16C41F00201C164C06C11A900F00200D5
:104D80001690C02011900220CDE912040720CDE931
:104D900014400848FDF7F2FE002211462520FEF7D8
:104DA00085F82520FEF774F818B010BD00380140D2
:104DB000001002400004004830B4D0F88C30202BA2
:104DC00002D0022030BC7047A9B1A2B10023C36653
:104DD0000A4C0368A3420BD05B681B0208D5046829
:104DE00054E8003F43F0806344E80035002DF6D1DD
:104DF00030BC01F04FBF0120E4E70000008000401C
:104E00000A4910B588420FD109490A4800F0A2FFAB
:104E100004220849054800F00FF8BDE810400422BC
:104E200004490248FFF7C8BF10BD0000000500207C
:104E30004C02002004000020D0F88830202B01D044
:104E40000220704721B31AB30165A0F85420A0F8DE
:104E5000562000218167C0F890102121C0F88810E9
:104E6000426E4FF48051B2F1005F826812D08A42E4
:104E700001D1016909B312498167026852E8001F34
:104E800041F0800142E80013002BF6D1002070476A
:104E9000012070478A4201D1016961B109498167E6
:104EA0000168083151E8002F42F4000241E8002374
:104EB000002BF5D1EAE70449F1E70449DCE70000FB
:104EC000636E0008B16E0008F96D0008A56D00085A
:104ED0007047FEE710B5DFED250A04462DED048B83
:104EE00090ED0A0A30EE609A70EE208AFBF772FFAE
:104EF000D4ED030A20EE208AB0EE490AFBF76AFFE0
:104F0000D4ED040A00EE208AB0EE680AFBF762FFD7
:104F1000D4ED050A00EE208A84ED078A94ED0A0A92
:104F2000FBF708FFD4ED030A20EE208AB0EE490A11
:104F3000FBF700FFD4ED040A00EE208AB0EE680A09
:104F4000FBF7F8FED4ED050A00EE208A9FED080A73
:104F500068EE000AC4ED060AD4ED070A20EE800AC6
:104F600084ED070ABDEC048B10BD0000920A0640D8
:104F7000ABAA2A3F02464FF480610148FDF722BFE9
:104F80000008004802464FF400610148FDF71ABFCF
:104F90000008004800EB8100006E00F0F840704708
:104FA0008068C0F3C00070478068C0F3800070471D
:104FB0008068C0F380007047C06810F4406F01D073
:104FC0000020704701207047042303EAD15310B535
:104FD00018444369C1F3045107248C40A3438A4019
:104FE0001343436110BD00EB8100016E21F00041CD
:104FF000114301667047000070B58CB0002408941E
:105000000994202168460A94FBF7C6FA33484FF00A
:10501000A041042501604FF40021C0E9011485611D
:105020000121C460C0E90441047741770526066286
:1050300080F82440C462046380F83810C46380F8A8
:105040004040FDF7EBF908B1FCF7DEFD08A9234865
:105050000894FCF72BFE08B1FCF7D6FD2048009021
:105060000620CDE901067F200594CDE903056946B8
:105070001A48FCF787FE08B1FCF7C6FD19480090F6
:105080000C20019069461548FCF77CFE08B1FCF73E
:10509000BBFD154800901220019069460F48FCF7AF
:1050A00071FE08B1FCF7B0FD104800901820019087
:1050B00069460A48FCF766FE08B1FCF7A5FD0C48F6
:1050C00000904FF48070019069460448FCF75AFE46
:1050D000002801D0FCF798FD0CB070BDEC0000205A
:1050E0000800900C1000C0102000F01402003004E2
:1050F00004006008194808B5816C41F0040181641E
:10510000816C01F004010091816C41F00201816425
:10511000816C01F002010091816C41F00101816418
:10512000806C002200F00100009011460B20FDF77A
:10513000BDFE0B20FDF7ACFE002211460C20FDF752
:10514000B5FE0C20FDF7A4FE002211463820FDF725
:10515000ADFEBDE808403820FDF79ABE00100240C1
:105160002DE9F04387B014216846FBF715FA404853
:10517000C16C41F00401C164C16C01F004010591EE
:10518000C16C41F02001C164C16C01F020010591A6
:10519000C16C41F00101C164C16C01F001010591D4
:1051A000C16C41F00201C164C06CDFF8C88000F03E
:1051B00002000590012210214046FDF703FE012266
:1051C000D6024FF0904931464846FDF7FBFD770087
:1051D000002239464846FDF7F5FD00224FF44061B4
:1051E0004046FDF7EFFD4FF4C04000904FF404102F
:1051F0000124CDE9010469464046FDF7BFFC4FF4A8
:10520000416000258DE83100694640460395FDF771
:10521000B5FCCDE9006469464846CDE90245FDF795
:10522000ADFC022000970395CDE901406946484650
:10523000FDF7A4FC200200904FF48810CDE9010591
:1052400069460D48FDF79AFC002211461720FDF72C
:105250002DFE1720FDF71CFE002211462820FDF729
:1052600025FE2820FDF714FE07B0BDE8F0830000FE
:10527000001002400008004800040048124810B521
:10528000104901604FF48271416000214FF4706257
:10529000C0E902120122C0E90412520282612022F6
:1052A000C0E9072107224162C0E90A120163416394
:1052B000FEF7A2FB002803D0BDE81040FCF7A4BC19
:1052C00010BD0000003001406002002010B588B021
:1052D00000241948009401940294039404940594C2
:1052E0001449069401601321C0E9011442F20F71C0
:1052F000C1604FF40071C0E904148461FEF78DFEB3
:1053000008B1FCF781FC4FF48050009069460A48D0
:10531000FEF7A2FF08B1FCF777FC049404A9064845
:105320000694FEF7CFFD002801D0FCF76DFC08B015
:1053300010BD000000400140B404002010B59CB036
:10534000002419941A9417941894149415941C21F9
:105350000DA81694FBF720F934216846FBF71CF9D9
:10536000354834490160032141606021816040F289
:10537000E731C0E903148021C0E90541FEF74DFE85
:1053800008B1FCF741FC4FF48050179017A92A4848
:10539000FEF762FF08B1FCF737FC2748FFF77FF9FB
:1053A00008B1FCF731FC1494159414A92248169402
:1053B000FEF788FD08B1FCF727FC7020CDE90D044D
:1053C0000F9410941194129400220DA91A4813946A
:1053D000FFF7D3F808B1FCF717FC04220DA9164813
:1053E000FFF7CBF808B1FCF70FFC08220DA9124813
:1053F000FFF7C3F808B1FCF707FC00944FF4005026
:10540000CDE9044003940003CDE9084001940294DF
:10541000069407940A940B94694607480C94FEF787
:10542000FFFC08B1FCF7F0FB0348FFF767F81CB07E
:1054300010BD0000002C01408403002010B588B08E
:105440000024174800940194029403940494059452
:105450004FF08041069401600F21C0E9011440F231
:10546000CF71C0E9031480218161FEF7D6FD08B138
:10547000FCF7CAFB4FF48050009069460848FEF7DD
:10548000EBFE08B1FCF7C0FB049404A904480694A1
:10549000FEF718FD002801D0FCF7B6FB08B010BDE0
:1054A000D003002010B588B000241848009401945F
:1054B00002940394049405941349069401600F2107
:1054C000C0E9011440F2E731C0E903148021816191
:1054D000FEF7A3FD08B1FCF797FB4FF48050009056
:1054E00069460A48FEF7B8FE08B1FCF78DFB049444
:1054F00004A906480694FEF7E5FC002801D0FCF755
:1055000083FB08B010BD0000000400401C04002014
:1055100010B588B0002417480094019402940394B5
:10552000049405941249069401600F21C0E9011406
:1055300042F20F71C0E903148461FEF76EFD08B1F9
:10554000FCF762FB4FF48050009069460948FEF773
:1055500083FE08B1FCF758FB049404A9054806949F
:10556000FEF7B0FC002801D0FCF74EFB08B010BDE0
:105570000008004068040020184810B51649016072
:105580004FF461414160002181600C22C160C0E99B
:1055900004128161C161016241628162FFF790FB87
:1055A00008B1FCF731FB00210C48FFF7D1F908B135
:1055B000FCF72AFB00210948FFF7A4F908B1FCF722
:1055C00023FB0648FFF77DF9002803D0BDE8104013
:1055D000FCF71ABB10BD0000003801400005002098
:1055E000FEE7FEE700B590ED010AD1ED000A0346A3
:1055F00070EE600AC0ED040A90ED000A91ED011A08
:1056000030EE410A80ED090A90ED051A71EE200A8C
:105610009FED191AC0ED050AD0ED0A0A30EE800A96
:1056200080ED0A0AB0EE410A03F1140001F0AEFD6C
:10563000B0EE410A03F1280001F0A8FD93ED020A43
:10564000D3ED040A93ED051A20EE200AD3ED030AE8
:1056500000EE810A82ED000A93ED070AD3ED090AF4
:1056600093ED0A1A20EE200AD3ED080A00EE810A13
:1056700082ED010A00BD00000080BB44D0ED000AAD
:1056800030EEC00A80ED010AD0ED020A70EE800A09
:10569000C0ED020A90ED031A21EE000A90ED041A03
:1056A00001EE200A704710B50446FEF74BFD0021BD
:1056B0002046FFF727F800212046FEF751FC042181
:1056C0002046FFF71FF804212046FEF749FC082179
:1056D0002046FFF717F82046BDE810400821FEF7E6
:1056E0003FBC70470148FEF709B900006002002086
:1056F00010B5806A0021A0F84610C187FEF7FCF8BB
:1057000010BD10B5806A01684A6822F003024A6041
:10571000016E41F010010166012180F85D10FEF775
:10572000EBF810BD10B5806AFEF751FA10BD10B548
:10573000806AFEF749FB10BD70B50546846AFDF727
:1057400047FB024628680068800627D42068416825
:1057500021F020014160A06818B96068B0F5827F2F
:1057600017D02068416821F0010141606421204682
:1057700000F046F808B1202020660020A4F846007A
:10578000012084F85D00206E40B12046FEF7B4F899
:1057900070BD2068416821F00301E6E72046FEF76E
:1057A00015FA70BD70B50546846AFDF711FB024617
:1057B0002868006880061FD42068416821F0200115
:1057C00041606421204600F055F818B1206E40F089
:1057D000200020662068416821F00301416000201C
:1057E000E087A4F84600012084F85D00206E18B11F
:1057F0002046FEF781F870BD2046FEF7C3FA70BD63
:105800002DE9F843044640684FF4827615468946F0
:105810004FF400474FF48068B04209D1A068B84205
:1058200001D0404504D12068016821F040010160A9
:105830004B46002280212046009500F0AFF880B949
:105840006068B04214D1A068B84201D040450FD181
:105850004B4600224FF4C0612046009500F02EF820
:1058600030B1206E40F0200020660320BDE8F883B0
:105870000020FBE7F8B515460E460B46009204469D
:1058800000224FF4C05100F019F888B933460022C5
:1058900080212046009500F081F848B93346002267
:1058A0004FF4C0612046009500F008F8002804D0AD
:1058B000206E40F0200020660320F8BD2DE9FE4F49
:1058C0004FF0000A984617460E4604460C9D8DF888
:1058D00004A0FDF77DFA411BA8EB0105FDF778FA5E
:1058E000814620684FF4C06B0C3002902A48006853
:1058F000C0EBC00000EB8000000D6843009043E067
:105900005E4506D12FB9029800788DF804009DF805
:105910000400B8F1FF3F37D0FDF75AFAA0EB0900B9
:10592000A84203D215B1009858B32BE02068416813
:1059300021F0E00141606068B0F5827F0BD1A06882
:10594000B0F5004F02D0B0F5806F04D12068016837
:1059500021F040010160A06AB0F5005F09D1206824
:10596000016821F4005101602068016841F4005190
:105970000160012084F85D0084F85CA00320BDE88C
:10598000FE8F0025401E0090206880683040B8429D
:10599000B6D10020F3E70000080000202DE9F8430D
:1059A0001E46914688460446089DFDF711FA401BA5
:1059B000351AFDF70DFA074625480068C0F3CB30CD
:1059C000684338E0701C37D0FDF702FAC01BA842CC
:1059D00003D215B1009860B32CE02068416821F033
:1059E000E00141606068B0F5827F0BD1A068B0F53E
:1059F000004F02D0B0F5806F04D12068016821F01B
:105A000040010160A06AB0F5005F09D1206801681B
:105A100021F4005101602068016841F400510160E7
:105A2000012084F85D00002084F85C000320BDE8BC
:105A3000F8830025401E00902068816838EA010044
:105A400004D000214945BDD10020F0E70121F9E74C
:105A500008000020704700002DE9F0411F462DEDA1
:105A6000048B16460C46B0EE408A0546FBF7B2F9A9
:105A7000F0EE409AB0EE480AFBF75CF9D5ED000A6B
:105A8000884A10EE900ADFED881A904201DBF0EEB2
:105A9000610A10EE900A8549C5ED000A9FED842A3F
:105AA000884201D3F0EE420AC5ED000A95ED011AD5
:105AB00011EE100A904201DBB0EE611A11EE100AED
:105AC00085ED011A884201D3B0EE421A60EE801AC9
:105AD00060EEA90A85ED011A41EE691A41EE000A4D
